:020000040800F2
:1000000000500020A91F0008851D00088B1D000856
:10001000911D0008971D00089D1D000800000000AC
:10002000000000000000000000000000A31D000808
:10003000AF1D000800000000BB1D0008C91D00081E
:10004000F11F0008F11F0008F11F0008F11F000850
:10005000F11F0008F11F0008F11F0008F11F000840
:10006000F11F0008F11F0008F11F0008F11F000830
:10007000F11F0008F11F0008F11F0008F11F000820
:10008000F11F0008F11F0008F11F0008F11F000810
:10009000F11F0008F11F0008F11F0008E51D00080E
:1000A000F11F0008F11F0008F11F0008F11F0008F0
:1000B000F11F0008F11F0008F11F0008F11F0008E0
:1000C000F11F0008F11F0008F11F0008F11F0008D0
:1000D000F11F0008F51D0008F11F0008091E0008A7
:1000E000F11F0008F11F0008F11F000800000000C8
:1000F0000000000000000000000000000000000000
:0C01000000000000000000005FF808F1A3
:1001100010B5054C237833B9044B13B10448AFF341
:1001200000800123237010BDDC01002000000000CE
:100130007C75000808B5034B1BB103490348AFF3B6
:10014000008008BD00000000E00100207C75000870
:10015000034613F8012B002AFBD1181A0138704707
:1001600081F0004102E000BF83F0004330B54FEA68
:1001700041044FEA430594EA050F08BF90EA020FD5
:100180001FBF54EA000C55EA020C7FEA645C7FEA68
:10019000655C00F0E2804FEA5454D4EB5555B8BF8B
:1001A0006D420CDD2C4480EA020281EA030382EAFC
:1001B000000083EA010180EA020281EA0303362D8E
:1001C00088BF30BD11F0004F4FEA01314FF4801C61
:1001D0004CEA113102D0404261EB410113F0004F73
:1001E0004FEA03334CEA133302D0524263EB43032A
:1001F00094EA050F00F0A780A4F10104D5F1200EC8
:100200000DDB02FA0EFC22FA05F2801841F1000122
:1002100003FA0EF2801843FA05F359410EE0A5F1F6
:1002200020050EF1200E012A03FA0EFC28BF4CF027
:10023000020C43FA05F3C01851EBE37101F00045DD
:1002400007D54FF0000EDCF1000C7EEB00006EEBEA
:100250000101B1F5801F1BD3B1F5001F0CD3490874
:100260005FEA30004FEA3C0C04F101044FEA4452CB
:1002700012F5800F80F09A80BCF1004F08BF5FEA52
:10028000500C50F1000041EB045141EA050130BD32
:100290005FEA4C0C404141EB0101013C28BFB1F544
:1002A000801FE9D291F0000F04BF01460020B1FA8F
:1002B00081F308BF2033A3F10B03B3F120020CDA62
:1002C0000C3208DD02F1140CC2F10C0201FA0CF040
:1002D00021FA02F10CE002F11402D8BFC2F1200CA5
:1002E00001FA02F120FA0CFCDCBF41EA0C0190405B
:1002F000E41AA2BF01EB0451294330BD6FEA0404A4
:100300001F3C1CDA0C340EDC04F11404C4F120028E
:1003100020FA04F001FA02F340EA030021FA04F3A0
:1003200045EA030130BDC4F10C04C4F1200220FAF7
:1003300002F001FA04F340EA0300294630BD21FA35
:1003400004F0294630BD94F0000F83F4801306BFFB
:1003500081F480110134013D4EE77FEA645C18BFEF
:100360007FEA655C29D094EA050F08BF90EA020F86
:1003700005D054EA000C04BF1946104630BD91EA7E
:10038000030F1EBF0021002030BD5FEA545C05D181
:100390004000494128BF41F0004130BD14F58004C0
:1003A0003CBF01F5801130BD01F0004545F0FE4134
:1003B00041F470014FF0000030BD7FEA645C1ABF69
:1003C000194610467FEA655C1CBF0B46024650EAA0
:1003D000013406BF52EA033591EA030F41F40021CC
:1003E00030BD00BF90F0000F04BF0021704730B552
:1003F0004FF4806404F132044FF000054FF0000127
:1004000050E700BF90F0000F04BF0021704730B5E7
:100410004FF4806404F1320410F0004548BF4042BC
:100420004FF000013EE700BF42004FEAE2014FEA11
:1004300031014FEA02701FBF12F07F4393F07F4FEC
:1004400081F06051704732F07F4208BF704793F0EF
:100450007F4F04BF41F40021704730B54FF4607402
:1004600001F0004521F000411CE700BF50EA010205
:1004700008BF704730B54FF000050AE050EA0102AE
:1004800008BF704730B511F0004502D5404261EB1E
:1004900041014FF4806404F132045FEA915C3FF45F
:1004A000D8AE4FF003025FEADC0C18BF03325FEAFC
:1004B000DC0C18BF033202EBDC02C2F1200300FAAD
:1004C00003FC20FA02F001FA03FE40EA0E0021FAD2
:1004D00002F11444BDE600BF70B54FF0FF0C4CF4C0
:1004E000E06C1CEA11541DBF1CEA135594EA0C0F72
:1004F00095EA0C0F00F0DEF82C4481EA030621EAAD
:100500004C5123EA4C5350EA013518BF52EA0335E7
:1005100041F4801143F4801338D0A0FB02CE4FF099
:100520000005E1FB02E506F00042E0FB03E54FF0C9
:100530000006E1FB03569CF0000F18BF4EF0010EC1
:10054000A4F1FF04B6F5007F64F5407404D25FEABD
:100550004E0E6D4146EB060642EAC62141EA555170
:100560004FEAC52040EA5E504FEACE2EB4F1FD0CB2
:1005700088BFBCF5E06F1ED8BEF1004F08BF5FEA30
:10058000500E50F1000041EB045170BD06F00046E2
:1005900046EA010140EA020081EA0301B4EB5C048F
:1005A000C2BFD4EB0C0541EA045170BD41F4801187
:1005B0004FF0000E013C00F3AB8014F1360FDEBFAC
:1005C000002001F0004170BDC4F10004203C35DA88
:1005D0000C341BDC04F11404C4F1200500FA05F30B
:1005E00020FA04F001FA05F240EA020001F00042AC
:1005F00021F0004110EBD37021FA04F642EB060122
:100600005EEA430E08BF20EAD37070BDC4F10C044B
:10061000C4F1200500FA04F320FA05F001FA04F20F
:1006200040EA020001F0004110EBD37041F10001FB
:100630005EEA430E08BF20EAD37070BDC4F1200506
:1006400000FA05F24EEA020E20FA04F301FA05F26E
:1006500043EA020321FA04F001F0004121FA04F216
:1006600020EA020000EBD3705EEA430E08BF20EAE6
:10067000D37070BD94F0000F0FD101F00046400020
:1006800041EB010111F4801F08BF013CF7D041EAA2
:10069000060195F0000F18BF704703F000465200A6
:1006A00043EB030313F4801F08BF013DF7D043EA77
:1006B0000603704794EA0C0F0CEA135518BF95EA2D
:1006C0000C0F0CD050EA410618BF52EA4306D1D1B4
:1006D00081EA030101F000414FF0000070BD50EAD3
:1006E000410606BF1046194652EA430619D094EA5D
:1006F0000C0F02D150EA013613D195EA0C0F05D147
:1007000052EA03361CBF104619460AD181EA03019A
:1007100001F0004141F0FE4141F470014FF0000052
:1007200070BD41F0FE4141F4780170BD70B54FF0ED
:10073000FF0C4CF4E06C1CEA11541DBF1CEA13556D
:1007400094EA0C0F95EA0C0F00F0A7F8A4EB05044F
:1007500081EA030E52EA03354FEA013100F0888046
:100760004FEA03334FF0805545EA131343EA12630F
:100770004FEA022245EA111545EA10654FEA0026C4
:100780000EF000419D4208BF964244F1FD0404F57D
:10079000407402D25B084FEA3202B61A65EB0305D9
:1007A0005B084FEA32024FF480104FF4002CB6EB96
:1007B000020E75EB030E22BFB61A754640EA0C0016
:1007C0005B084FEA3202B6EB020E75EB030E22BF56
:1007D000B61A754640EA5C005B084FEA3202B6EB97
:1007E000020E75EB030E22BFB61A754640EA9C0056
:1007F0005B084FEA3202B6EB020E75EB030E22BF26
:10080000B61A754640EADC0055EA060E18D04FEAE3
:10081000051545EA16754FEA06164FEAC30343EA83
:1008200052734FEAC2025FEA1C1CC0D111F4801F50
:100830000BD141EA00014FF000004FF0004CB6E749
:1008400011F4801F04BF01430020B4F1FD0C88BFE8
:10085000BCF5E06F3FF6AFAEB5EB030C04BFB6EBF3
:10086000020C5FEA500C50F1000041EB045170BDE6
:100870000EF0004E4EEA113114EB5C04C2BFD4EB13
:100880000C0541EA045170BD41F480114FF0000E97
:10089000013C90E645EA060E8DE60CEA135594EA13
:1008A0000C0F08BF95EA0C0F3FF43BAF94EA0C0F16
:1008B0000AD150EA01347FF434AF95EA0C0F7FF48B
:1008C00025AF104619462CE795EA0C0F06D152EADF
:1008D00003353FF4FDAE1046194622E750EA4106C3
:1008E00018BF52EA43067FF4C5AE50EA41047FF4D4
:1008F0000DAF52EA43057FF4EBAE12E74FF0FF3C39
:1009000006E000BF4FF0010C02E000BF4FF0010C09
:100910004DF804CD4FEA410C7FEA6C5C4FEA430C82
:1009200018BF7FEA6C5C1BD001B050EA410C0CBFD1
:1009300052EA430C91EA030F02BF90EA020F002033
:10094000704710F1000F91EA030F58BF994208BF9A
:1009500090422CBFD8176FEAE37040F00100704757
:100960004FEA410C7FEA6C5C02D150EA013C07D1AE
:100970004FEA430C7FEA6C5CD6D152EA033CD3D0F9
:100980005DF8040B704700BF8446104662468C46F3
:100990001946634600E000BF01B5FFF7B7FF002826
:1009A00048BF10F1000F01BD4DF808EDFFF7F4FF4F
:1009B0000CBF012000205DF808FB00BF4DF808EDDA
:1009C000FFF7EAFF34BF012000205DF808FB00BFFD
:1009D0004DF808EDFFF7E0FF94BF012000205DF81F
:1009E00008FB00BF4DF808EDFFF7CEFF94BF0120D4
:1009F00000205DF808FB00BF4DF808EDFFF7C4FFCD
:100A000034BF012000205DF808FB00BF4FEA410C15
:100A10007FEA6C5C02D150EA013C0AD14FEA430CF8
:100A20007FEA6C5C02D152EA033C02D14FF0000035
:100A300070474FF0010070474FEA410212F5001273
:100A400015D211D56FF47873B3EB625212D94FEA15
:100A5000C12343F0004343EA505311F0004F23FAFF
:100A600002F018BF404270474FF00000704750EA54
:100A7000013005D111F0004008BF6FF00040704711
:100A80004FF00000704700BF80B400AF00BF074BBD
:100A90001B7883F00103DBB2002BF8D1034B00225B
:100AA0001A7001231846BD4680BC70470D02002015
:100AB00080B400AF00BF074B1B7883F00103DBB2AB
:100AC000002BF8D1034B00221A7001231846BD46B3
:100AD00080BC70470D02002080B582B000AF034695
:100AE000FB71FB79002B0CD100224FF400411F4811
:100AF00001F04AFE00224FF480711D4801F044FECF
:100B00002EE0FB79012B0CD101224FF40041174854
:100B100001F03AFE00224FF48071154801F034FED6
:100B20001EE0FB79022B0CD100224FF400410F484C
:100B300001F02AFE01224FF480710D4801F024FEDD
:100B40000EE0FB79032B0BD101224FF40041074843
:100B500001F01AFE01224FF48071054801F014FEE5
:100B6000FB7918460837BD4680BD00BF000C014028
:100B70000008014080B586B000AF0346FB8000232B
:100B8000FB750023BB75C0233B7300237B730223DB
:100B9000BB73FB7DFB73BB7D3B744FF6FF73BB8266
:100BA000FB881B0A9BB2DAB2BB8ADBB21340FB752F
:100BB000FB88DAB2BB8ADBB21340BB75FB7DFB73EB
:100BC000BB7D3B7407F10C014FF47A730522064894
:100BD00003F04EF8FFF76CFF044AFB88138000BF58
:100BE0001837BD4680BD00BFBC020020F8010020C0
:100BF00080B584B000AF0346FB710B46BB71134652
:100C00007B710023FB73C0233B7202237B720123A1
:100C1000BB72FB7BFB72FB79002B36D0FB79012B7F
:100C200004D1FB7B43F02003FB732EE0FB79022B06
:100C300004D1FB7B43F04003FB7326E0FB79032BDD
:100C400004D1FB7B43F06003FB731EE0FB79042BB4
:100C500004D1FB7B63F07F03FB7316E0FB79052B6C
:100C600004D1FB7B63F05F03FB730EE0FB79062B83
:100C700004D1FB7B63F03F03FB7306E0FB79072B9A
:100C800003D1FB7B63F01F03FB73BB79002B16D0F2
:100C9000BB79012B04D1FB7B63F07F03FB730EE078
:100CA000BB79022B04D1FB7B43F01003FB7306E0FE
:100CB000BB79032B03D1FB7B43F01803FB737B79D8
:100CC000002B36D07B79012B04D1FB7B43F0010351
:100CD000FB732EE07B79022B04D1FB7B43F00203F4
:100CE000FB7326E07B79032B04D1FB7B43F00303EA
:100CF000FB731EE07B79042B04D1FB7B43F00403E0
:100D0000FB7316E07B79052B04D1FB7B43F00503D5
:100D1000FB730EE07B79062B04D1FB7B43F00603CB
:100D2000FB7306E07B79072B03D1FB7B43F00703C2
:100D3000FB73FB7BFB7207F108014FF47A7304220B
:100D4000054802F095FFFFF7B3FE044AFB7B937062
:100D500000BF1037BD4680BDBC020020F801002056
:100D600080B584B000AF0346FB710B46BB711346E0
:100D70007B710023FB73C0233B7203237B7201232F
:100D8000BB72FB7BFB72FB79002B16D0FB79012B2E
:100D900004D1FB7B43F04003FB730EE0FB79022B95
:100DA00004D1FB7B63F07F03FB7306E0FB79032B2D
:100DB00003D1FB7B63F03F03FB73BB79002B03D0B4
:100DC000FB7B43F02003FB737B79002B16D07B79F0
:100DD000012B04D1FB7B43F00103FB730EE07B7915
:100DE000022B04D1FB7B43F00203FB7306E07B790B
:100DF000032B03D1FB7B43F00303FB73FB7BFB72F1
:100E000007F108014FF47A730422064802F030FF1C
:100E1000FFF74EFE044AFB7BD37000BF1037BD4680
:100E200080BD00BFBC020020F801002080B584B066
:100E300000AF0346FB710023FB73C0233B72042306
:100E40007B720123BB72FB7BFB72FA7BFB79134342
:100E5000FB73FB7BFB7207F108014FF47A730422EA
:100E6000054802F005FFFFF723FE044AFB7B1371E0
:100E700000BF1037BD4680BDBC020020F801002035
:100E800090B585B000AF0446084611461A46234681
:100E9000FB710346BB710B467B7113463B7100230C
:100EA000FB73C0233B7205237B720123BB72FB7B68
:100EB000FB72FB7983F00103DBB2002B03D1FB7BD8
:100EC00063F07F03FB73BB79002B03D0FB7B43F004
:100ED0004003FB737B7983F00103DBB2002B03D16A
:100EE000FB7B43F01003FB733B79002B36D03B793F
:100EF000012B04D1FB7B43F00103FB732EE03B7914
:100F0000022B04D1FB7B43F00203FB7326E03B7909
:100F1000032B04D1FB7B43F00303FB731EE03B79FF
:100F2000042B04D1FB7B43F00403FB7316E03B79F5
:100F3000052B04D1FB7B43F00503FB730EE03B79EB
:100F4000062B04D1FB7B43F00603FB7306E03B79E1
:100F5000072B03D1FB7B43F00703FB73FB7BFB7287
:100F600007F108014FF47A730422064802F080FE6C
:100F7000FFF79EFD044AFB7B537100BF1437BD464B
:100F800090BD00BFBC020020F801002080B586B0F3
:100F900000AF0346FB800023FB750023BB75C02315
:100FA0003B7306237B730223BB73FB7DFB73BB7D0B
:100FB0003B744FF6FF73BB82FB881B0A9BB2DAB20D
:100FC000BB8ADBB21340FB75FB88DAB2BB8ADBB2AB
:100FD0001340BB75FB7DFB73BB7D3B7407F10C01BC
:100FE0004FF47A730522064802F042FEFFF760FDD7
:100FF000044AFB88D38000BF1837BD4680BD00BFC0
:10100000BC020020F801002080B586B000AF034686
:10101000FB800B467B7113463B7107F108030022EE
:101020001A605A609A60DA60FB883B810323BB72C6
:101030000023FB7200233B7300237B730023BB73ED
:101040000023FB737B793B743B797B740123BB7476
:101050000023FB7400233B750023FB823B89184669
:10106000FFF788FD1E2001F027F8BB7AF97A3A7B5A
:101070001846FFF7BDFD1E2001F01EF87B7BB97BF3
:10108000FA7B1846FFF76CFE1E2001F015F83B7C3A
:101090001846FFF7CBFE1E2001F00EF8787CB97CD5
:1010A000FA7C3B7DFFF7ECFE1E2001F005F8FB8A81
:1010B0001846FFF76BFF1E2000F0FEFF00BF183739
:1010C000BD4680BD90B484B000AF3C1D84E80700ED
:1010D000FB70084B1C463B1D93E8070084E80700A3
:1010E000054AFB781370044B1B7818461037BD4631
:1010F00090BC7047000200200C02002080B582B036
:1011000000AF00F077FF00F083F800F049F900F03D
:10111000F3F800F01BF900F0C1F801224FF4005180
:10112000344801F031FB0320FFF7D6FCFFF7ACFC9D
:1011300000224FF400512F4801F026FB4FF4FA70C3
:1011400000F0BAFF01224FF400512A4801F01CFBC5
:10115000294A002307CAFFF7B5FF274B01225A800F
:10116000254B02225A72244B03221A80224B04225E
:101170001A72214B1B88204A117A00221846FFF769
:1011800043FF4FF4FA7000F097FF00224FF4005134
:10119000184801F0F9FA4FF4FA7000F08DFF0122BF
:1011A0004FF40051134801F0EFFA0020FFF794FCD0
:1011B00005221249124802F0DEFD00F00BFA002170
:1011C000002000F083FB0F490F4804F089F801224A
:1011D0000E490D4800F010FC00F0C0FA4FF47A7090
:1011E00000F06AFF002000F0EBFA00F0B7FA642389
:1011F000FB80FEE7001001404C030020300200207D
:10120000BC02002098750008100200200000002099
:1012100080B590B000AF07F11803282200211846CE
:1012200004F0C1F83B1D00221A605A609A60DA602F
:101230001A610123BB614FF48033FB6100233B62E1
:101240000123BB6202237B634FF48033BB634FF403
:10125000E013FB6307F11803184602F0A9F80346F0
:10126000002B01D000F0B0F90F237B600223BB609C
:101270000023FB604FF480633B614FF480637B612C
:101280003B1D0221184602F015FB0346002B01D03E
:1012900000F09AF900BF4037BD4680BD80B500AF71
:1012A000124B134A1A60114B124A5A600F4B00221C
:1012B0009A600E4B0022DA600C4B4FF480421A61A8
:1012C0000A4B00225A61094B00229A61074B002207
:1012D000DA61064B00221A62044801F09FFA0346C5
:1012E000002B01D000F070F900BF80BD6802002023
:1012F00000540040A086010080B500AF114B124A97
:101300001A60104B4FF416525A600E4B00229A602E
:101310000C4B0022DA600B4B00221A61094B0C22A5
:101320005A61084B00229A61064B0022DA61054897
:1013300002F04EFC0346002B01D000F045F900BF3F
:1013400080BD00BFBC0200200038014080B500AF66
:10135000114B124A1A60104B4FF416525A600E4B42
:1013600000229A600C4B0022DA600B4B00221A61BB
:10137000094B0C225A61084B00229A61064B00224D
:10138000DA61054802F024FC0346002B01D000F08E
:101390001BF900BF80BD00BF0403002000480040CF
:1013A00080B588B000AF07F1100300221A605A60C0
:1013B0009A60DA60574B9B69564A43F01003936179
:1013C000544B9B6903F01003FB60FB68514B9B6916
:1013D000504A43F0200393614E4B9B6903F0200376
:1013E000BB60BB684B4B9B694A4A43F00403936163
:1013F000484B9B6903F004037B607B68454B9B690A
:10140000444A43F008039361424B9B6903F008038D
:101410003B603B6800224FF400513F4801F0B4F9B3
:1014200000224FF488713D4801F0AEF9002248F2E5
:1014300001013B4801F0A8F94FF400533B6101233F
:101440007B610023BB610223FB6107F11003194696
:10145000314801F015F810233B6101237B61002323
:10146000BB610223FB6107F1100319462B4801F011
:1014700007F801233B6101237B610023BB61022349
:10148000FB6107F110031946254800F0F9FF02231C
:101490003B6100237B610123BB6107F11003194607
:1014A0001F4800F0EDFF4FF400433B6101237B61D7
:1014B0000223BB610223FB6107F1100319461848A0
:1014C00000F0DEFF4FF480733B6101237B61022358
:1014D000BB610223FB6107F1100319460F4800F0BE
:1014E000CFFF4FF400733B610E4B7B610123BB6167
:1014F00007F1100319460A4800F0C2FF002200213C
:10150000172000F0D4FE172000F0EDFE00BF2037BA
:10151000BD4680BD0010024000100140000801409F
:10152000000C01400000211080B582B000AF78604F
:101530007B68084A934204D14FF40051064801F0F9
:101540003BF905220549034802F015FC00BF0837A6
:10155000BD4680BDBC0200200010014030020020CA
:1015600080B582B000AF7860094802F0CFFE034634
:10157000084A1360074B1B68082B04D10522064953
:10158000034802F0F8FB00BF0837BD4680BD00BF2E
:10159000BC020020640200203002002080B483B02E
:1015A00000AF0346FB80FB88022B06D0FB88B3F517
:1015B000007F02D1034B01221A7000BF0C37BD46D9
:1015C00080BC70470D02002080B400AF72B600BF2F
:1015D000FEE7000080B582B000AF00F033FA44F6B9
:1015E0002063012278215B4801F05AFB0346002B5F
:1015F00001D00023A9E040F6C4137B6002E07B68C1
:10160000013B7B607B68002BF9D1AE220021782062
:1016100000F092FA20220021782000F08DFA1022AA
:101620000021782000F088FAB0220021782000F014
:1016300083FAC8220021782000F07EFA00220021DF
:10164000782000F079FA10220021782000F074FA56
:1016500040220021782000F06FFA812200217820BA
:1016600000F06AFAFF220021782000F065FAA1223A
:101670000021782000F060FAA6220021782000F0F6
:101680005BFAA8220021782000F056FA1F220021E0
:10169000782000F051FAA4220021782000F04CFAC2
:1016A000D3220021782000F047FA00220021782080
:1016B00000F042FAD5220021782000F03DFAF02215
:1016C0000021782000F038FAD9220021782000F09B
:1016D00033FA22220021782000F02EFADA220021AB
:1016E000782000F029FA02220021782000F024FA64
:1016F000DB220021782000F01FFA20220021782030
:1017000000F01AFA8D220021782000F015FA142238
:101710000021782000F010FAAF220021782000F09C
:101720000BFA2E220021782000F006FA002000F0AB
:1017300047F800F013F8084B00221A80064B0022ED
:101740005A80054B01225A71012318460837BD46BD
:1017500080BD00BF68020020FC04002080B582B07C
:1017600000AF0023FB7121E0FB79503BDBB21A464E
:101770000021782000F0E0F900220021782000F01C
:10178000DBF910220021782000F0D6F9FA7913460F
:10179000DB009B1A1A01D31A084A1A446923402114
:1017A000782000F063F9FB790133FB71FB79072B9B
:1017B000DAD900BF00BF0837BD4680BD58030020FE
:1017C00080B582B000AF0346FB71FB79002B01D1DD
:1017D000002300E0FF234FF4D2721946034803F0C0
:1017E000E2FD00BF0837BD4680BD00BF58030020A2
:1017F00090B482B000AF0346FB800B46BB8013461B
:10180000FB70FB88682B58D8BB881F2B55D82D4BF5
:101810001B79002B06D0FB78002B0CBF0123002383
:10182000DBB2FB70FB78012B22D1FA88BB88DB0886
:1018300098B201460B46DB005B1A1901CB1A134420
:10184000214AD35C5AB2BB8803F00703012101FA95
:1018500003F35BB213435CB2FA8801460B46DB002C
:101860005B1A1901CB1A1344E1B2174AD15425E08F
:10187000FA88BB88DB0898B201460B46DB005B1A8E
:101880001901CB1A1344104AD35C5AB2BB8803F037
:101890000703012101FA03F35BB2DB435BB21340A0
:1018A0005CB2FA8801460B46DB005B1A1901CB1AC1
:1018B0001344E1B2044AD15400E000BF0837BD46EA
:1018C00090BC7047FC0400205803002080B483B013
:1018D00000AF03460A46FB801346BB80054AFB88DF
:1018E0001380044ABB88538000BF0C37BD4680BCC0
:1018F000704700BFFC04002080B586B000AF0346EF
:101900003960FB711346BB713A4B1B881A463B6822
:101910001B781344682B07DC364B5B881A463B6800
:101920005B7813441F2B01DD00235EE000237B6105
:101930004BE03B685A68FB79203B3968497801FBEA
:1019400003F319467B690B445B0013441B88FB605F
:1019500000233B6130E0FA683B6902FA03F303F4C9
:101960000043002B10D0234B1A883B699BB21344D1
:1019700098B2204B5A887B699BB213449BB2BA79C8
:101980001946FFF735FF14E01A4B1A883B699BB2E2
:10199000134498B2174B5A887B699BB2134499B28F
:1019A000BB79002B0CBF01230023DBB21A46FFF7E3
:1019B0001FFF3B6901333B613B681B781A463B695B
:1019C0009342C8D37B6901337B613B685B781A46DD
:1019D0007B699342ADD3074B1A883B681B789BB257
:1019E00013449AB2034B1A80FB7918461837BD4648
:1019F00080BD00BFFC04002080B584B000AFF8605B
:101A0000B9601346FB7112E0FB681B78FA79B9687C
:101A10001846FFF771FF03461A46FB681B789A4287
:101A200002D0FB681B7808E0FB680133FB60FB68B1
:101A30001B78002BE8D1FB681B7818461037BD4691
:101A400080BD000080B483B000AF074B7B6002E034
:101A50007B68013B7B607B68002BF9D100BF00BF36
:101A60000C37BD4680BC704790D0030090B5C7B01E
:101A700002AF0446084607F58871A1F588710A602F
:101A8000194607F58873A3F2091322461A7007F561
:101A90008873A3F5857302461A7007F58873A3F55A
:101AA00086730A461A8007F58873A3F5827307F5D3
:101AB0008872A2F5857212781A70002387F80F31A8
:101AC00015E097F80F3107F58872A2F58872126851
:101AD0001A4497F80F310133117807F58872A2F58F
:101AE0008272D15497F80F31013387F80F3197F88C
:101AF0000F319BB207F58872A2F5867212889A425E
:101B0000DFD807F58873A3F209131B7899B207F59C
:101B10008873A3F586731B8801339BB207F10C020F
:101B20000A200090034800F0BDFF00BF07F58A7748
:101B3000BD4690BD6802002080B586B002AF034666
:101B4000FB710B46BB7113467B71BB793B737B7991
:101B50007B73FB7999B207F10C020A2300930223ED
:101B6000034800F09FFF00BF1037BD4680BD00BF97
:101B70006802002080B485B000AF154B9B69144A01
:101B800043F001039361124B9B6903F00103BB60B7
:101B9000BB680F4BDB690E4A43F08053D3610C4B9B
:101BA000DB6903F080537B607B680A4B5B68FB60FA
:101BB000FB6823F0E063FB60FB6843F00073FB60AD
:101BC000044AFB68536000BF1437BD4680BC7047B1
:101BD000001002400000014080B588B000AF78607E
:101BE00007F1100300221A605A609A60DA607B687D
:101BF0001B68154A934223D1144B9B69134A43F047
:101C000008039361114B9B6903F00803FB60FB68B9
:101C1000C0233B6112237B610323FB6107F11003A7
:101C200019460B4800F02CFC084BDB69074A43F4CB
:101C30000013D361054BDB6903F40013BB60BB6881
:101C400000BF2037BD4680BD005400400010024058
:101C5000000C014080B58AB000AF786007F118032E
:101C600000221A605A609A60DA607B681B68404AFA
:101C700093423AD13F4B9B693E4A43F48043936180
:101C80003C4B9B6903F480437B617B69394B9B69C7
:101C9000384A43F004039361364B9B6903F0040315
:101CA0003B613B694FF40073BB610223FB6103237B
:101CB0007B6207F1180319462F4800F0E1FB4FF44F
:101CC0008063BB610023FB6100233B6207F11803C3
:101CD0001946294800F0D4FB00220021252000F0FD
:101CE000E6FA252000F0FFFA3EE07B681B68234AF5
:101CF000934239D11F4BDB691E4A43F48023D361E1
:101D00001C4BDB6903F48023FB60FB68194B9B6968
:101D1000184A43F008039361164B9B6903F00803CC
:101D2000BB60BB684FF48063BB610223FB6103238C
:101D30007B6207F118031946114800F0A1FB4FF42C
:101D40000063BB610023FB6100233B6207F11803C2
:101D500019460B4800F094FB00220021272000F0D8
:101D6000A6FA272000F0BFFA00BF2837BD4680BD85
:101D700000380140001002400008014000480040C7
:101D8000000C014080B400AFFEE780B400AFFEE776
:101D900080B400AFFEE780B400AFFEE780B400AFD0
:101DA000FEE780B400AF00BFBD4680BC704780B482
:101DB00000AF00BFBD4680BC704780B400AF00BF1D
:101DC000BD4680BC7047000080B500AF044B1B6867
:101DD0000133034A136000F053F900BF80BD00BF18
:101DE0000405002080B500AF4FF4007000F0FEFC49
:101DF00000BF80BD80B500AF024801F0E1FF00BF29
:101E000080BD00BFBC02002080B500AF024801F0D9
:101E1000D7FF00BF80BD00BF0403002080B400AF27
:101E200001231846BD4680BC704780B582B000AF24
:101E30007860396003F00AFB034616221A604FF0FF
:101E4000FF3318460837BD4680BD80B582B000AF6D
:101E500078604FF0FF317868FFF7E7FFFEE780B565
:101E600086B000AFF860B9607A6000237B610AE059
:101E7000AFF300800146BB685A1CBA60CAB21A7040
:101E80007B6901337B617A697B689A42F0DB7B680E
:101E900018461837BD4680BD80B586B000AFF860E3
:101EA000B9607A6000237B6109E0BB685A1CBA60A4
:101EB0001B781846AFF300807B6901337B617A6938
:101EC0007B689A42F1DB7B6818461837BD4680BDB7
:101ED00080B483B000AF78604FF0FF3318460C3702
:101EE000BD4680BC704780B483B000AF7860396075
:101EF0003B684FF400525A60002318460C37BD4629
:101F000080BC704780B483B000AF7860012318466E
:101F10000C37BD4680BC704780B485B000AFF86018
:101F2000B9607A60002318461437BD4680BC7047FC
:101F300080B586B000AF7860144A154BD31A7B6128
:101F40007B693B61134B1B68002B02D1114B124A7A
:101F50001A60104B1A687B6813443A699A4207D298
:101F600003F074FA03460C221A604FF0FF3309E0C5
:101F7000084B1B68FB60074B1A687B681344054AD3
:101F80001360FB6818461837BD4680BD005000201E
:101F900000040000080500206006002080B400AFA7
:101FA00000BFBD4680BC7047FFF7F8FF0B480C49E7
:101FB0000C4A002302E0D458C4500433C4188C42A5
:101FC000F9D3094A094C002301E013600432A2420C
:101FD000FBD303F041FAFFF791F8704700000020AF
:101FE000DC010020B4800008DC0100205C06002039
:101FF000FEE7000080B500AF084B1B68074A43F0BE
:1020000010031360032000F047F90F2000F008F8D8
:10201000FFF7B0FD0023184680BD00BF002002403E
:1020200080B582B000AF7860124B1A68124B1B78F3
:1020300019464FF47A73B3FBF1F3B2FBF3F318468E
:1020400000F05FF90346002B01D001230EE07B680E
:102050000F2B0AD8002279684FF0FF3000F027F9E3
:10206000064A7B681360002300E001231846083706
:10207000BD4680BD08000020100000200C0000209C
:1020800080B400AF054B1B781A46054B1B68134400
:10209000034A136000BFBD4680BC7047100000209B
:1020A0000C05002080B400AF024B1B681846BD46EB
:1020B00080BC70470C05002080B584B000AF78600C
:1020C000FFF7F0FFB8607B68FB60FB68B3F1FF3F90
:1020D00005D00A4B1B781A46FB681344FB6000BF0F
:1020E000FFF7E0FF0246BB68D31AFA689A42F7D8B6
:1020F00000BF00BF1037BD4680BD00BF10000020EC
:1021000080B485B000AF78607B6803F00703FB60A4
:102110000C4BDB68BB60BA684FF6FF031340BB6033
:10212000FB681A02BB68134343F0BF6343F40033F8
:10213000BB60044ABB68D36000BF1437BD4680BC97
:10214000704700BF00ED00E080B400AF044BDB68D7
:102150001B0A03F007031846BD4680BC704700BF4A
:1021600000ED00E080B483B000AF0346FB7197F947
:102170000730002B0BDBFB7903F01F02064997F9B0
:1021800007305B09012000FA02F241F8232000BF6A
:102190000C37BD4680BC704700E100E080B483B0DE
:1021A00000AF03463960FB7197F90730002B0ADB5B
:1021B0003B68DAB20C4997F907301201D2B20B44EE
:1021C00083F800230AE03B68DAB20849FB7903F0A0
:1021D0000F03043B1201D2B20B441A7600BF0C3736
:1021E000BD4680BC704700BF00E100E000ED00E0AC
:1021F00080B489B000AFF860B9607A60FB6803F022
:102200000703FB61FB69C3F10703042B28BF042309
:10221000BB61FB690433062B02D9FB69033B00E079
:1022200000237B614FF0FF32BB6902FA03F3DA430C
:10223000BB681A407B699A404FF0FF317B6901FA15
:1022400003F3D9437B680B40134318462437BD463C
:1022500080BC704780B582B000AF78607B68013B7E
:10226000B3F1807F01D301230FE00A4A7B68013B71
:1022700053600F214FF0FF30FFF790FF054B002216
:102280009A60044B07221A60002318460837BD469F
:1022900080BD00BF10E000E080B582B000AF786084
:1022A0007868FFF72DFF00BF0837BD4680BD80B5B9
:1022B00086B000AF0346B9607A60FB7300237B6190
:1022C000FFF742FF78617A68B9687869FFF790FF95
:1022D000024697F90F3011461846FFF75FFF00BF1F
:1022E0001837BD4680BD80B582B000AF0346FB7194
:1022F00097F907301846FFF735FF00BF0837BD468E
:1023000080BD80B582B000AF78607868FFF7A2FF2B
:10231000034618460837BD4680BD80B485B000AF7F
:1023200078600023FB737B6893F82130DBB2022BCB
:1023300008D07B6804229A637B68002283F82020FF
:10234000012320E07B681B681A687B681B6822F009
:102350000E021A607B681B681A687B681B6822F093
:1023600001021A607B681A6C7B68DB6B012101FA41
:1023700002F25A607B68012283F821207B680022E8
:1023800083F82020FB7B18461437BD4680BC70477D
:1023900080B584B000AF78600023FB737B6893F84E
:1023A0002130DBB2022B05D07B6804229A63012323
:1023B000FB7351E07B681B681A687B681B6822F01E
:1023C0000E021A607B681B681A687B681B6822F023
:1023D00001021A607B681B68224A934229D07B68FD
:1023E0001B68214A934222D07B681B681F4A934294
:1023F0001AD07B681B681E4A934212D07B681B6808
:102400001C4A93420AD07B681B681B4A934202D144
:102410004FF480130EE04FF080730BE04FF48033E5
:1024200008E04FF4805305E04FF4807302E010237E
:1024300000E00123114A53607B68012283F82120C8
:102440007B68002283F820207B685B6B002B03D025
:102450007B685B6B78689847FB7B18461037BD46F6
:1024600080BD00BF080002401C0002403000024056
:1024700044000240580002406C000240000002404C
:1024800080B48BB000AF7860396000237B6200239A
:102490003B6269E101227B6A02FA03F3FB613B685C
:1024A0001B68FA691340BB61BA69FB699A4240F044
:1024B00058813B685B689A4A93425ED0984A93423F
:1024C00075D8984A934258D0964A93426FD8964A04
:1024D000934252D0944A934269D8944A93424CD042
:1024E000924A934263D8924A934246D0904A93428A
:1024F0005DD8122B2AD8122B59D801A252F823F0FA
:102500007B2500085525000867250008A925000837
:10251000AF250008AF250008AF250008AF2500084B
:10252000AF250008AF250008AF250008AF2500083B
:10253000AF250008AF250008AF250008AF2500082B
:10254000AF2500085D25000871250008794A9342EF
:1025500013D02CE03B68DB683B6229E03B68DB681A
:1025600004333B6224E03B68DB6808333B621FE0D6
:102570003B68DB680C333B621AE03B689B68002BCE
:1025800002D104233B6213E03B689B68012B05D119
:1025900008233B627B68FA691A6109E008233B6201
:1025A0007B68FA695A6103E000233B6200E000BFE8
:1025B000BB69FF2B01D87B6801E07B6804337B613A
:1025C000BB69FF2B02D87B6A9B0002E07B6A083B59
:1025D0009B003B617B691A680F213B6901FA03F399
:1025E000DB431A40396A3B6901FA03F31A437B69FA
:1025F0001A603B685B6803F08053002B00F0B180E9
:102600004D4B9B694C4A43F0010393614A4B9B69D4
:1026100003F00103BB60BB68484A7B6A9B08023336
:1026200052F82330FB607B6A03F003039B000F2208
:1026300002FA03F3DB43FA681340FB607B68404A0D
:10264000934213D07B683F4A93420DD07B683E4A49
:10265000934207D07B683D4A934201D1032306E0B1
:10266000042304E0022302E0012300E000237A6A4D
:1026700002F0030292009340FA681343FB602F4973
:102680007B6A9B080233FA6841F823203B685B6849
:1026900003F48013002B06D02D4B9A682C49BB699C
:1026A00013438B6006E02A4B9A68BB69DB432849D9
:1026B00013408B603B685B6803F40013002B06D06B
:1026C000234BDA682249BB691343CB6006E0204BF9
:1026D000DA68BB69DB431E491340CB603B685B682B
:1026E00003F40033002B06D0194B5A681849BB6914
:1026F00013434B6006E0164B5A68BB69DB43144931
:1027000013404B603B685B6803F48033002B21D09F
:102710000F4B1A680E49BB6913430B6021E000BFE1
:1027200000003210000031100000221000002110C3
:1027300000001210000011100010024000000140C3
:1027400000080140000C014000100140001401404D
:10275000000401400B4B1A68BB69DB430949134075
:102760000B607B6A01337B623B681A687B6A22FAE2
:1027700003F3002B7FF48EAE00BF00BF2C37BD46A5
:1027800080BC70470004014080B483B000AF786023
:102790000B467B8013467B707B78002B03D07A88B6
:1027A0007B681A6103E07B881A047B681A6100BFAA
:1027B0000C37BD4680BC704780B485B000AF7860F0
:1027C0000B467B807B68DB68FB607A88FB68134084
:1027D0001A04FB68D9437B880B401A437B681A6153
:1027E00000BF1437BD4680BC7047000080B582B082
:1027F00000AF0346FB80084B5A69FB881340002B4F
:1028000006D0054AFB885361FB881846FEF7C6FED2
:1028100000BF0837BD4680BD0004014080B584B0CC
:1028200000AF78607B68002B01D101232BE17B682E
:1028300093F83D30DBB2002B06D17B68002283F891
:102840003C207868FFF7C8F97B68242283F83D2094
:102850007B681B681A687B681B6822F001021A609B
:102860007B681B681A687B681B6842F400421A6028
:102870007B681B681A687B681B6822F400421A6038
:1028800001F060F9F8607B685B68814A934207D881
:10289000FB68804A934294BF01230023DBB206E029
:1028A000FB687D4A934294BF01230023DBB2002BD7
:1028B00001D00123E7E0FB68784AA2FB03239B0CCD
:1028C000BB607B681B685B6823F03F017B681B680B
:1028D000BA680A435A607B681B681B6A23F03F0191
:1028E0007B685B686A4A934202D8BB68013309E09F
:1028F000BB684FF4967202FB03F3694AA2FB032301
:102900009B0901337A6812680B4313627B681B686A
:10291000DB6923F44F4222F0FF027B685B685C496D
:102920008B4219D8FB68591E7B685B685B00B1FB62
:10293000F3F3591C40F6FC730B40002B0AD0FB68E4
:10294000591E7B685B685B00B1FBF3F30133C3F393
:102950000B0351E004234FE07B689B68002B11D1EF
:10296000FB68581E7B6859680B465B000B44B0FB44
:10297000F3F30133C3F30B03002B0CBF012300233C
:10298000DBB212E0FB68581E7B6859680B469B005F
:102990000B4499000B44B0FBF3F30133C3F30B0377
:1029A000002B0CBF01230023DBB2002B01D001233D
:1029B00022E07B689B68002B0ED1FB68581E7B6869
:1029C00059680B465B000B44B0FBF3F30133C3F3D0
:1029D0000B0343F400430FE0FB68581E7B68596803
:1029E0000B469B000B4499000B44B0FBF3F30133FF
:1029F000C3F30B0343F44043796809681343CB6185
:102A00007B681B681B6823F0C0017B68DA697B6800
:102A10001B6A1A437B681B680A431A607B681B6841
:102A20009B6823F4034323F0FF037A6811697A68F3
:102A3000D26811437A6812680B4393607B681B6805
:102A4000DB6823F0FF017B685A697B689B691A4346
:102A50007B681B680A43DA607B681B681A687B68BE
:102A60001B6842F001021A607B6800221A647B68CE
:102A7000202283F83D207B6800221A637B680022B5
:102A800083F83E20002318461037BD4680BD00BFA6
:102A9000A08601007F841E00FF083D0083DE1B43EB
:102AA000D34D621080B588B002AFF8607A601A46E4
:102AB0000B467B8113463B81FFF7F4FA7861FB6894
:102AC00093F83D30DBB2202B40F0E0807B6900932F
:102AD000192301227049F86800F092FA0346002B8E
:102AE00001D00223D3E0FB6893F83C30012B01D1E5
:102AF0000223CCE0FB68012283F83C20FB681B68C2
:102B00001B6803F00103012B07D0FB681B681A68E0
:102B1000FB681B6842F001021A60FB681B681A68B8
:102B2000FB681B6822F400621A60FB68212283F8AC
:102B30003D20FB68102283F83E20FB6800221A64C7
:102B4000FB687A685A62FB683A895A85FB685B8D34
:102B50009AB2FB681A85FB68504ADA6279897B6908
:102B60003A6AF86800F0CAF90346002B01D0012345
:102B70008DE000233B61FB681B685B693B61FB6880
:102B80001B689B693B613B6966E07A69396AF86852
:102B900000F050FB0346002B0DD0FB681B6C042B90
:102BA00007D1FB681B681A68FB681B6842F4007257
:102BB0001A6001236BE0FB685B6A1A78FB681B688C
:102BC0001A61FB685B6A5A1CFB685A62FB685B8D82
:102BD0009BB2013B9AB2FB685A85FB681B8D013B97
:102BE0009AB2FB681A85FB681B685B6903F00403F3
:102BF000042B1BD1FB681B8D002B17D0FB685B6A75
:102C00001A78FB681B681A61FB685B6A5A1CFB68D0
:102C10005A62FB685B8D9BB2013B9AB2FB685A8596
:102C2000FB681B8D013B9AB2FB681A857A69396A89
:102C3000F86800F047FB0346002B0DD0FB681B6CC7
:102C4000042B07D1FB681B681A68FB681B6842F4F9
:102C500000721A6001231AE0FB681B8D002B94D1CF
:102C6000FB681B681A68FB681B6842F400721A60F4
:102C7000FB68202283F83D20FB68002283F83E2079
:102C8000FB68002283F83C20002300E00223184662
:102C90001837BD4680BD00BF020010000000FFFFD6
:102CA00080B58AB002AFF8607A603B600B467B81EA
:102CB000FFF7F8F9F8610023BB61FB6893F83D303A
:102CC000DBB2202B40F01181FB6900931923012214
:102CD0008849F86800F094F90346002B01D00223DC
:102CE00004E1FB6893F83C30012B01D10223FDE0A5
:102CF000FB68012283F83C20FB681B681B6803F01B
:102D00000103012B07D0FB681B681A68FB681B686E
:102D100042F001021A60FB681B681A68FB681B68B6
:102D200022F400621A60FB68242283F83D20FB68CD
:102D300000221A64FB68704ADA62FB681B681A6832
:102D4000FB681B6842F480721A60FB6900933B6861
:102D500000224FF00111F86800F052F90346002BF1
:102D60000DD0FB681B681B6803F48073B3F5807F8C
:102D700003D1FB684FF400721A640323B6E07B8929
:102D8000DBB21A46FB681B6802F0FE021A61FFF70D
:102D900089F9F861FB681B685B6903F00203022B89
:102DA0000CBF01230023DBB2FB75FB681B685B696A
:102DB00003F48063B3F5806F0CBF01230023DBB203
:102DC000BB7525E0FFF76EF90246FB69D31A3A6836
:102DD0009A4202D33B68002B03D1FB68A02283F800
:102DE0003D20FB681B685B6903F00203022B0CBFEC
:102DF00001230023DBB2FB75FB681B685B6903F4EE
:102E00008063B3F5806F0CBF01230023DBB2BB7579
:102E1000FB6893F83D30DBB2A02B05D0FB7D002B87
:102E200002D1BB7D002BCDD0FB68202283F83D2052
:102E3000FB681B685B6903F00203022B29D1FB6866
:102E40001B681A68FB681B6842F400721A60002352
:102E50003B61FB681B685B693B61FB681B689B69A6
:102E60003B613B69FB690093192301222149F86802
:102E700000F0C6F80346002B01D0012336E0FB68C2
:102E8000202283F83D20FB68002283F83C200023A9
:102E90002CE0FB681B681A68FB681B6842F4007230
:102EA0001A60FB681B686FF480625A61FB690093CB
:102EB000192301220F49F86800F0A2F80346002BFD
:102EC00001D0012312E0BB690133BB61BA697B68A1
:102ED0009A42FFF432AFFB68202283F83D20FB6862
:102EE000002283F83C20012300E00223184620370B
:102EF000BD4680BD020010000000FFFF80B588B015
:102F000002AFF8607A603B600B467B81FB68DB6A4E
:102F10007B617B69082B06D07B69012B03D07B6921
:102F200013F5803F08D1FB681B681A68FB681B68B3
:102F300042F480721A600BE0FB681B6B122B07D106
:102F4000FB681B681A68FB681B6842F480721A6091
:102F50003B6800937B6800224FF00111F86800F095
:102F60004FF80346002B0DD0FB681B681B6803F469
:102F70008073B3F5807F03D1FB684FF400721A644D
:102F8000032335E0FB681B69B3F5804F08D17B89CB
:102F9000DBB21A46FB681B6802F0FE021A611BE0F6
:102FA0007B89DB11DBB203F00603DBB263F00F03B6
:102FB000DAB2FB681B681A613B687A680E49F868E8
:102FC00000F098F80346002B01D0012310E07B8924
:102FD000DAB2FB681B681A613B687A680749F868CF
:102FE00000F088F80346002B01D0012300E0002305
:102FF00018461837BD4680BD0800010002000100D8
:1030000080B584B000AFF860B9603B601346FB71D7
:1030100048E03B68B3F1FF3F44D0FFF743F8024676
:10302000BB69D31A3A689A4202D33B68002B39D164
:10303000BB681B0CDBB2012B0DD1FB681B685B6905
:10304000DA43BB6813409BB2002B0CBF0123002363
:10305000DBB21A460CE0FB681B689B69DA43BB686D
:1030600013409BB2002B0CBF01230023DBB21A4696
:10307000FB799A4216D1FB6800221A63FB68202272
:1030800083F83D20FB68002283F83E20FB681B6C20
:1030900043F02002FB681A64FB68002283F83C209E
:1030A000012323E0BB681B0CDBB2012B0DD1FB68B5
:1030B0001B685B69DA43BB6813409BB2002B0CBFF3
:1030C00001230023DBB21A460CE0FB681B689B69F6
:1030D000DA43BB6813409BB2002B0CBF01230023D3
:1030E000DBB21A46FB799A4293D000231846103778
:1030F000BD4680BD80B584B000AFF860B9607A602D
:103100003B6071E0FB681B685B6903F48063B3F5A7
:10311000806F23D1FB681B681A68FB681B6842F448
:1031200000721A60FB681B686FF480625A61FB686A
:1031300000221A63FB68202283F83D20FB680022EE
:1031400083F83E20FB681B6C43F00402FB681A64A2
:10315000FB68002283F83C20012367E07B68B3F121
:10316000FF3F41D0FEF79EFF02463B68D31A7A68C4
:103170009A4202D37B68002B36D1BB681B0CDBB2B2
:10318000012B0CD1FB681B685B69DA43BB681340F9
:103190009BB2002B14BF01230023DBB20BE0FB68C2
:1031A0001B689B69DA43BB6813409BB2002B14BFBA
:1031B00001230023DBB2002B16D0FB6800221A6328
:1031C000FB68202283F83D20FB68002283F83E2024
:1031D000FB681B6C43F02002FB681A64FB6800224A
:1031E00083F83C20012321E0BB681B0CDBB2012BE0
:1031F0000CD1FB681B685B69DA43BB6813409BB268
:10320000002B14BF01230023DBB20BE0FB681B681B
:103210009B69DA43BB6813409BB2002B14BF0123A8
:103220000023DBB2002B7FF46DAF0023184610376C
:10323000BD4680BD80B584B000AFF860B9607A60EB
:1032400034E0F86800F086F80346002B01D0012333
:1032500034E0BB68B3F1FF3F28D0FEF723FF0246FE
:103260007B68D31ABA689A4202D3BB68002B1DD17F
:10327000FB681B685B6903F08003802B16D0FB683A
:1032800000221A63FB68202283F83D20FB6800229D
:1032900083F83E20FB681B6C43F02002FB681A6435
:1032A000FB68002283F83C20012307E0FB681B68D1
:1032B0005B6903F08003802BC3D1002318461037CD
:1032C000BD4680BD80B584B000AFF860B9607A605B
:1032D00034E0F86800F03EF80346002B01D00123EB
:1032E00034E0BB68B3F1FF3F28D0FEF7DBFE0246B7
:1032F0007B68D31ABA689A4202D3BB68002B1DD1EF
:10330000FB681B685B6903F00403042B16D0FB68A1
:1033100000221A63FB68202283F83D20FB6800220C
:1033200083F83E20FB681B6C43F02002FB681A64A4
:10333000FB68002283F83C20012307E0FB681B6840
:103340005B6903F00403042BC3D100231846103734
:10335000BD4680BD80B483B000AF78607B681B68D9
:103360005B6903F48063B3F5806F1BD17B681B68D6
:103370006FF480625A617B6800221A637B682022A6
:1033800083F83D207B68002283F83E207B681B6C1D
:1033900043F004027B681A647B68002283F83C20B7
:1033A000012300E0002318460C37BD4680BC70475F
:1033B00080B586B000AF78607B68002B01D1012317
:1033C00072E27B681B6803F00103002B00F087802A
:1033D000924B5B6803F00C03042B0CD08F4B5B68A3
:1033E00003F00C03082B12D18C4B5B6803F4803381
:1033F000B3F5803F0BD1894B1B6803F40033002BDE
:103400006CD07B685B68002B68D101234CE27B6841
:103410005B68B3F5803F06D1804B1B687F4A43F45D
:10342000803313602EE07B685B68002B0CD17B4BF4
:103430001B687A4A23F480331360784B1B68774A01
:1034400023F4802313601DE07B685B68B3F5A02F35
:103450000CD1724B1B68714A43F4802313606F4B8D
:103460001B686E4A43F4803313600BE06B4B1B68A0
:103470006A4A23F480331360684B1B68674A23F45D
:10348000802313607B685B68002B13D0FEF70AFE75
:10349000386108E0FEF706FE02463B69D31A642B4A
:1034A00001D9032300E25D4B1B6803F40033002BBA
:1034B000F0D014E0FEF7F6FD386108E0FEF7F2FD0B
:1034C00002463B69D31A642B01D90323ECE1534B29
:1034D0001B6803F40033002BF0D100E000BF7B68D1
:1034E0001B6803F00203002B63D04C4B5B6803F0B6
:1034F0000C03002B0BD0494B5B6803F00C03082B2B
:103500001CD1464B5B6803F48033002B16D1434B30
:103510001B6803F00203002B05D07B681B69012B9D
:1035200001D00123C0E13D4B1B6823F0F8027B680A
:103530005B69DB00394913430B603AE07B681B6928
:10354000002B20D0364B01221A60FEF7ABFD38610C
:1035500008E0FEF7A7FD02463B69D31A022B01D90A
:103560000323A1E12D4B1B6803F00203002BF0D0D5
:103570002A4B1B6823F0F8027B685B69DB00274954
:1035800013430B6015E0264B00221A60FEF78AFDFC
:10359000386108E0FEF786FD02463B69D31A022B2C
:1035A00001D9032380E11D4B1B6803F00203002BAC
:1035B000F0D17B681B6803F00803002B3AD07B68CE
:1035C0009B69002B19D0174B01221A60FEF76AFD88
:1035D000386108E0FEF766FD02463B69D31A022B0C
:1035E00001D9032360E10D4B5B6A03F00203002B5A
:1035F000F0D0012000F0CEFA1CE00A4B00221A6045
:10360000FEF750FD38610FE0FEF74CFD02463B69C6
:10361000D31A022B08D9032346E100BF0010024051
:103620000000424280044242924B5B6A03F0020374
:10363000002BE9D17B681B6803F00403002B00F02A
:10364000A6800023FB758B4BDB6903F08053002BB6
:103650000DD1884BDB69874A43F08053D361854B9A
:10366000DB6903F08053BB60BB680123FB75824BB1
:103670001B6803F48073002B18D17F4B1B687E4AB4
:1036800043F480731360FEF70DFD386108E0FEF728
:1036900009FD02463B69D31A642B01D9032303E1D8
:1036A000754B1B6803F48073002BF0D07B68DB68DC
:1036B000012B06D16F4B1B6A6E4A43F00103136264
:1036C0002DE07B68DB68002B0CD16A4B1B6A694AD2
:1036D00023F001031362674B1B6A664A23F004035D
:1036E00013621CE07B68DB68052B0CD1614B1B6A05
:1036F000604A43F0040313625E4B1B6A5D4A43F069
:10370000010313620BE05B4B1B6A5A4A23F001036F
:103710001362584B1B6A574A23F0040313627B68F9
:10372000DB68002B15D0FEF7BDFC38610AE0FEF720
:10373000B9FC02463B69D31A41F28832934201D95F
:103740000323B1E04B4B1B6A03F00203002BEED0C6
:1037500014E0FEF7A7FC38610AE0FEF7A3FC02467E
:103760003B69D31A41F28832934201D903239BE08B
:10377000404B1B6A03F00203002BEED1FB7D012BB3
:1037800005D13C4BDB693B4A23F08053D3617B6816
:10379000DB69002B00F08780364B5B6803F00C037D
:1037A000082B61D07B68DB69022B46D1334B0022AA
:1037B0001A60FEF777FC386108E0FEF773FC0246FA
:1037C0003B69D31A022B01D903236DE0294B1B68F7
:1037D00003F00073002BF0D17B681B6AB3F5803FC8
:1037E00008D1244B5B6823F400327B689B68214935
:1037F00013434B601F4B5B6823F474127B68196A98
:103800007B685B6A0B431B4913434B601B4B0122D4
:103810001A60FEF747FC386108E0FEF743FC0246F9
:103820003B69D31A022B01D903233DE0114B1B68DE
:1038300003F00073002BF0D035E0104B00221A602B
:10384000FEF730FC386108E0FEF72CFC02463B69CD
:10385000D31A022B01D9032326E0064B1B6803F081
:103860000073002BF0D11EE07B68DB69012B07D1D0
:10387000012319E000100240007000406000424245
:103880000B4B5B68FB60FB6803F480327B681B6A50
:103890009A4206D1FB6803F470127B685B6A9A4215
:1038A00001D0012300E0002318461837BD4680BD33
:1038B0000010024080B584B000AF786039607B684A
:1038C000002B01D10123D0E06A4B1B6803F00703F2
:1038D0003A689A4210D9674B1B6823F00702654982
:1038E0003B6813430B60634B1B6803F007033A68A4
:1038F0009A4201D00123B8E07B681B6803F0020301
:10390000002B20D07B681B6803F00403002B05D03C
:10391000594B5B68584A43F4E06353607B681B680B
:1039200003F00803002B05D0534B5B68524A43F465
:1039300060535360504B5B6823F0F0027B689B68D8
:103940004D4913434B607B681B6803F00103002B58
:1039500040D07B685B68012B07D1474B1B6803F4A1
:103960000033002B15D101237FE07B685B68022BBD
:1039700007D1414B1B6803F00073002B09D10123D1
:1039800073E03D4B1B6803F00203002B01D10123C0
:103990006BE0394B5B6823F003027B685B68364958
:1039A00013434B60FEF77EFBF8600AE0FEF77AFBFC
:1039B0000246FB68D31A41F28832934201D90323AD
:1039C00053E02D4B5B6803F00C027B685B689B0047
:1039D0009A42EBD1274B1B6803F007033A689A42DF
:1039E00010D2244B1B6823F0070222493B68134383
:1039F0000B60204B1B6803F007033A689A4201D022
:103A0000012332E07B681B6803F00403002B08D01D
:103A1000194B5B6823F4E0627B68DB68164913434B
:103A20004B607B681B6803F00803002B09D0124B26
:103A30005B6823F460527B681B69DB000E4913430B
:103A40004B6000F021F802460B4B5B681B0903F04A
:103A50000F030A49CB5C22FA03F3094A1360094BAE
:103A60001B681846FEF7DCFA002318461037BD46DF
:103A700080BD00BF0020024000100240107D000801
:103A8000080000200C00002080B487B000AF0023A5
:103A9000FB600023BB6000237B6100237B6000236D
:103AA0003B611E4B5B68FB60FB6803F00C03042B5F
:103AB00002D0082B03D027E0194B3B6127E0FB68BD
:103AC0009B0C03F00F03174AD35C7B60FB6803F485
:103AD0008033002B10D0114B5B685B0C03F00103AB
:103AE000114AD35CBB607B680D4A03FB02F2BB68E2
:103AF000B2FBF3F37B6104E07B680C4A02FB03F347
:103B00007B617B693B6102E0054B3B6100BF3B6928
:103B100018461C37BD4680BC704700BF00100240ED
:103B200000127A00287D0008387D000800093D0059
:103B300080B400AF024B1B681846BD4680BC70477E
:103B40000800002080B500AFFFF7F2FF0246054BEA
:103B50005B681B0A03F007030349CB5C22FA03F3FB
:103B6000184680BD00100240207D000880B500AFDF
:103B7000FFF7DEFF0246054B5B68DB0A03F0070335
:103B80000349CB5C22FA03F3184680BD00100240C3
:103B9000207D000880B485B000AF78600A4B1B68B8
:103BA0000A4AA2FB03235B0A7A6802FB03F3FB6069
:103BB00000BFFB685A1EFA60002BF9D100BF00BF9E
:103BC0001437BD4680BC704708000020D34D6210FA
:103BD00080B582B000AF78607B68002B01D10123F3
:103BE00042E07B6893F84130DBB2002B06D17B6862
:103BF000002283F840207868FEF72CF87B682422A6
:103C000083F841207B681B68DA687B681B6822F4B4
:103C10000052DA60786800F0C7FD7B681B681A699B
:103C20007B681B6822F490421A617B681B685A69A2
:103C30007B681B6822F02A025A617B681B68DA687D
:103C40007B681B6842F40052DA607B6800225A6489
:103C50007B68202283F841207B68202283F8422061
:103C60007B6800225A63002318460837BD4680BD92
:103C700080B58AB002AFF860B9603B601346FB8044
:103C800000237B61FB6893F84130DBB2202B6DD1C0
:103C9000BB68002B02D0FB88002B01D1012366E01A
:103CA000FB6800225A64FB68212283F84120FEF75A
:103CB000F9F97861FB68FA889A84FB68FA88DA84F3
:103CC000FB689B68B3F5805F08D1FB681B69002B1C
:103CD00004D10023FB61BB68BB6103E0BB68FB61EF
:103CE0000023BB612AE03B6800937B6900228021AE
:103CF000F86800F016FB0346002B01D0032336E0E2
:103D0000FB69002B0BD1BB691B881A46FB681B683B
:103D1000C2F308025A60BB690233BB6107E0FB696A
:103D20001A78FB681B685A60FB690133FB61FB680A
:103D3000DB8C9BB2013B9AB2FB68DA84FB68DB8CBC
:103D40009BB2002BCFD13B6800937B6900224021BE
:103D5000F86800F0E6FA0346002B01D0032306E0E2
:103D6000FB68202283F84120002300E0022318464C
:103D70002037BD4680BD80B584B000AFF860B96023
:103D80001346FB80FB6893F84230DBB2202B12D144
:103D9000BB68002B02D0FB88002B01D101230BE074
:103DA000FB6800221A63FB881A46B968F86800F0BD
:103DB00026FB034600E0022318461037BD4680BDAF
:103DC00080B5BAB000AF78607B681B681B68C7F825
:103DD000E4307B681B68DB68C7F8E0307B681B68F1
:103DE0005B69C7F8DC300023C7F8D8300023C7F878
:103DF000D430D7F8E43003F00F03C7F8D830D7F841
:103E0000D830002B0FD1D7F8E43003F02003002B7B
:103E100009D0D7F8E03003F02003002B03D07868F6
:103E200000F003FC5BE2D7F8D830002B00F0DE8016
:103E3000D7F8DC3003F00103002B06D1D7F8E030CF
:103E400003F49073002B00F0D180D7F8E43003F036
:103E50000103002B0BD0D7F8E03003F48073002B64
:103E600005D07B685B6C43F001027B685A64D7F82D
:103E7000E43003F00403002B0BD0D7F8DC3003F060
:103E80000103002B05D07B685B6C43F002027B686A
:103E90005A64D7F8E43003F00203002B0BD0D7F8B4
:103EA000DC3003F00103002B05D07B685B6C43F032
:103EB00004027B685A64D7F8E43003F00803002B4F
:103EC00011D0D7F8E03003F02003002B05D1D7F84C
:103ED000DC3003F00103002B05D07B685B6C43F002
:103EE00008027B685A647B685B6C002B00F0F281EF
:103EF000D7F8E43003F02003002B08D0D7F8E030E7
:103F000003F02003002B02D0786800F08EFB7B6862
:103F10001B685B6903F04003002B14BF01230023DF
:103F2000DBB2C7F8D4307B685B6C03F00803002B6E
:103F300003D1D7F8D430002B4FD0786800F098FA2E
:103F40007B681B685B6903F04003002B41D07B68F2
:103F50001B681433C7F89C30D7F89C3053E8003FF7
:103F6000C7F89830D7F8983023F04003C7F8D0301E
:103F70007B681B681433D7F8D020C7F8A820C7F88F
:103F8000A430D7F8A410D7F8A82041E80023C7F838
:103F9000A030D7F8A030002BD9D17B68DB6B002B89
:103FA00013D07B68DB6B7E4A5A637B68DB6B1846F9
:103FB000FEF7EEF90346002B16D07B68DB6B5B6BDC
:103FC0007A68D26B104698470EE07868FDF7C8FA19
:103FD0000AE07868FDF7C4FA06E07868FDF7C0FAF1
:103FE0007B6800225A6475E100BF73E17B681B6B3C
:103FF000012B40F04F81D7F8E43003F01003002B81
:1040000000F04881D7F8E03003F01003002B00F0F7
:1040100041810023BB607B681B681B68BB607B68B9
:104020001B685B68BB60BB687B681B685B6903F0EF
:104030004003002B00F0B6807B68DB6B1B685B687D
:10404000A7F8BE30B7F8BE30002B00F045817B6882
:104050009B8DB7F8BE209A4280F03E817B68B7F80E
:10406000BE20DA857B68DB6B9B69202B00F08880A3
:104070007B681B680C33C7F88830D7F8883053E862
:10408000003FC7F88430D7F8843023F48073C7F832
:10409000B8307B681B680C33D7F8B820C7F8942079
:1040A000C7F89030D7F89010D7F8942041E8002353
:1040B000C7F88C30D7F88C30002BD9D17B681B68BF
:1040C00014337B677B6F53E8003F3B673B6F23F004
:1040D0000103C7F8B4307B681B681433D7F8B420E9
:1040E000C7F88020FB67F96FD7F8802041E80023EC
:1040F000BB67BB6F002BE1D17B681B6814333B6649
:104100003B6E53E8003FFB65FB6D23F04003C7F8AF
:10411000B0307B681B681433D7F8B020FA66BB66F2
:10412000B96EFA6E41E800237B667B6E002BE3D10B
:104130007B68202283F842207B6800221A637B6818
:104140001B680C33FB64FB6C53E8003FBB64BB6C27
:1041500023F01003C7F8AC307B681B680C33D7F82A
:10416000AC20BA657B65796DBA6D41E800233B658B
:104170003B6D002BE3D17B68DB6B1846FEF7CDF877
:104180007B6802225A637B689A8D7B68DB8D9BB2C9
:10419000D31A9BB21946786800F0ADF89CE000BFD6
:1041A000354500087B689A8D7B68DB8D9BB2D31AFE
:1041B000A7F8CE307B68DB8D9BB2002B00F08E80A1
:1041C000B7F8CE30002B00F089807B681B680C3379
:1041D000BB63BB6B53E8003F7B637B6B23F4907343
:1041E000C7F8C8307B681B680C33D7F8C8207A64DE
:1041F0003B64396C7A6C41E80023FB63FB6B002B5A
:10420000E3D17B681B6814337B627B6A53E8003F11
:104210003B623B6A23F00103C7F8C4307B681B682C
:104220001433D7F8C4203A63FB62F96A3A6B41E869
:104230000023BB62BB6A002BE3D17B68202283F89A
:1042400042207B6800221A637B681B680C333B6149
:104250003B6953E8003FFB60FB6823F01003C7F89D
:10426000C0307B681B680C33D7F8C020FA61BB6193
:10427000B969FA6941E800237B617B69002BE3D1CE
:104280007B6802225A63B7F8CE301946786800F08E
:1042900032F823E0D7F8E43003F08003002B09D094
:1042A000D7F8E03003F08003002B03D0786800F0EB
:1042B00055F914E0D7F8E43003F04003002B0ED09A
:1042C000D7F8E03003F04003002B08D0786800F006
:1042D00094F904E000BF02E000BF00E000BFE8374F
:1042E000BD4680BD80B483B000AF786000BF0C379E
:1042F000BD4680BC704780B483B000AF78600B4689
:104300007B8000BF0C37BD4680BC704780B483B053
:1043100000AF78607B685B6C18460C37BD4680BC8C
:10432000704780B590B000AFF860B9603B6013464D
:10433000FB7150E0BB6CB3F1FF3F4CD0BB6C002B6A
:1043400007D0FDF7AFFE02463B68D31ABA6C9A421B
:1043500041D2FB681B680C33BB62BB6A53E8003F69
:104360007B627B6A23F4D073FB63FB681B680C33AE
:10437000FA6B7A633B63396B7A6B41E80023FB622B
:10438000FB6A002BE5D1FB681B6814337B617B69FA
:1043900053E8003F3B613B6923F00103BB63FB68CB
:1043A0001B681433BA6B3A62FB61F9693A6A41E8F7
:1043B0000023BB61BB69002BE5D1FB68202283F899
:1043C0004120FB68202283F84220FB68002283F80A
:1043D000402003230FE0FB681B681A68BB6813408A
:1043E000BA689A420CBF01230023DBB21A46FB795C
:1043F0009A429FD0002318464037BD4680BD80B406
:1044000085B000AFF860B9601346FB80FB68BA68FE
:104410009A62FB68FA889A85FB68FA88DA85FB68F5
:1044200000225A64FB68222283F84220FB681B6941
:10443000002B07D0FB681B68DA68FB681B6842F436
:104440008072DA60FB681B685A69FB681B6842F07F
:1044500001025A61FB681B68DA68FB681B6842F05E
:104460002002DA60002318461437BD4680BC70472E
:1044700080B495B000AF78607B681B680C337B63B9
:104480007B6B53E8003F3B633B6B23F49073FB640F
:104490007B681B680C33FA6C3A64FB63F96B3A6C0B
:1044A00041E80023BB63BB6B002BE5D17B681B6835
:1044B00014333B623B6A53E8003FFB61FB6923F026
:1044C0000103BB647B681B681433BA6CFA62BB627D
:1044D000B96AFA6A41E800237B627B6A002BE5D166
:1044E0007B681B6B012B19D17B681B680C33FB604D
:1044F000FB6853E8003FBB60BB6823F010037B649C
:104500007B681B680C337A6CBA617B617969BA6924
:1045100041E800233B613B69002BE5D17B68202209
:1045200083F842207B6800221A6300BF5437BD46DF
:1045300080BC704780B584B000AF78607B685B6AF0
:10454000FB60FB680022DA85FB680022DA84F868E9
:10455000FDF706F800BF1037BD4680BD80B485B0BA
:1045600000AF78607B6893F84130DBB2212B3ED1FD
:104570007B689B68B3F5805F14D17B681B69002B57
:1045800010D17B681B6AFB60FB681B881A467B683E
:104590001B68C2F308025A607B681B6A9A1C7B681E
:1045A0001A6208E07B681B6A591C7A6811621A78E3
:1045B0007B681B685A607B68DB8C9BB2013B9BB2BB
:1045C0007A681946D184002B0FD17B681B68DA68A2
:1045D0007B681B6822F08002DA607B681B68DA68FF
:1045E0007B681B6842F04002DA60002300E002238F
:1045F00018461437BD4680BC704780B582B000AF06
:1046000078607B681B68DA687B681B6822F0400270
:10461000DA607B68202283F841207868FFF762FE29
:10462000002318460837BD4680BD80B58CB000AF6A
:1046300078607B6893F84230DBB2222B40F0AE808A
:104640007B689B68B3F5805F17D17B681B69002B83
:1046500013D10023FB627B689B6ABB627B681B688B
:104660005B689BB2C3F308039AB2BB6A1A807B688B
:104670009B6A9A1C7B689A6226E07B689B6AFB6255
:104680000023BB627B689B68B3F5805F07D07B68C3
:104690009B68002B0AD17B681B69002B06D17B68C5
:1046A0001B685B68DAB2FB6A1A7008E07B681B68FB
:1046B0005B68DBB203F07F03DAB2FB6A1A707B68D7
:1046C0009B6A5A1C7B689A627B68DB8D9BB2013BBC
:1046D0009BB27A681946D185002B5DD17B681B6837
:1046E000DA687B681B6822F02002DA607B681B684E
:1046F000DA687B681B6822F48072DA607B681B686A
:104700005A697B681B6822F001025A617B6820228B
:1047100083F842207B6800225A637B681B6B012B65
:1047200035D17B6800221A637B681B680C337B6180
:104730007B6953E8003F3B613B6923F010037B62D8
:104740007B681B680C337A6A3A62FB61F9693A6AE2
:1047500041E80023BB61BB69002BE5D17B681B6886
:104760001B6803F01003102B0AD10023FB607B6849
:104770001B681B68FB607B681B685B68FB60FB68F1
:104780007B689B8D19467868FFF7B5FD02E0786875
:10479000FCF7CAFE002302E0002300E002231846D3
:1047A0003037BD4680BD000080B584B000AF786072
:1047B0007B681B681B6923F440517B68DA687B685F
:1047C0001B680A431A617B689A687B681B691A43F5
:1047D0007B685B691343BB607B681B68DB6823F401
:1047E000B05323F00C037A681268B9680B43D360A6
:1047F0007B681B685B6923F440717B689A697B68FE
:104800001B680A435A617B681B682C4A934203D198
:10481000FFF7ACF9F86002E0FFF794F9F860FA6886
:1048200013469B0013449A001A447B685B689B0004
:10483000B2FBF3F3224AA2FB03235B091901FA68D6
:1048400013469B0013449A001A447B685B689B00E4
:10485000B2FBF3F21A4BA3FB02035B09642000FBDB
:1048600003F3D31A1B013233154AA2FB03235B095E
:1048700003F0F0031944FA6813469B0013449A00AE
:104880001A447B685B689B00B2FBF3F20C4BA3FB02
:1048900002035B09642000FB03F3D31A1B013233CC
:1048A000074AA2FB03235B0903F00F027B681B6826
:1048B0000A449A6000BF1037BD4680BD00380140F1
:1048C0001F85EB51002B2DE9F0471F46BBBF03F1BD
:1048D00000431F4600232D2388B01446129A109DD2
:1048E0001370149BDDF84CA023F02008B8F1460F9C
:1048F00005D0B8F1450F00D10135022300E00323B4
:1049000007AA049206AACDE902A2CDE90035224603
:104910003B4600F061FEB8F1470F064602D1119BFD
:10492000DB0722D5B8F1460F06EB050910D1337825
:10493000302B0AD10022002320463946FCF734F8F8
:1049400018B9C5F10105CAF80050DAF800309944E9
:104950000022002320463946FCF726F808B1CDF89E
:104960001C903022079B4B4507D33046079B159A76
:104970009B1B136008B0BDE8F087591C07911A70A3
:10498000F0E70346F7B5002903F8022BB6BF2D2246
:104990002B224942092942702ADD0DF107021746F0
:1049A0000A2691FBF6F5944606FB151430340CF8F4
:1049B000014C0C46632C294602F1FF32F1DC303108
:1049C000ACF1020402F8011C2246411CBA420AD38F
:1049D0000DF10902A2EB0C02BC4288BF0022134475
:1049E000181A03B0F0BD12F8015B01F8015FEDE7A2
:1049F000302330318370C170031DF1E72DE9F04F92
:104A000091B00C46DDF8688016461F46054600F05A
:104A1000D3FC036818460993FBF79AFB00230E9317
:104A2000D8F800300A90073323F0070303F1080297
:104A300094F81890D4F800B0C8F80020D3E900A882
:104A400052464346C4E9122328F000430B934FF02B
:104A5000FF3250469C4B0B99FBF7D8FF70BB4FF0D1
:104A6000FF325046984B0B99FBF7B2FF30BB002248
:104A7000002350464146FBF7A1FF10B12D2384F8D7
:104A80004330924A924BB9F1470F94BF90469846F3
:104A900003234FF0000A23612BF004032360334605
:104AA0002146284600970FAA00F0D6F9013040F0C1
:104AB00090804FF0FF3011B0BDE8F08F5246434672
:104AC00050464146FBF7A2FF48B1B8F1000FB8BF0E
:104AD0002D23804AB8BF84F843307F4BD3E7636807
:104AE00009F0DF015A1C42D10623636000220692BE
:104AF0000EAACDE904920DAA4BF4806303920DF146
:104B00003302CDE9013223606368524600932846A0
:104B100043460B91FFF7D6FE0B99804647290D9926
:104B200008D1C81C02DB6368994240DDA9F1020983
:104B30005FFA89F9B9F1650F1FD84A46013904F1C6
:104B400050000D91FFF71DFF0E9A82461318012A9F
:104B5000236102DC2268D20701D5013323619DF86D
:104B60003330002B9BD02D2384F8433097E747291F
:104B7000BCD1002BBAD10123B7E7B9F1660F18D128
:104B8000002963680BDD216113B92268D00702D5C3
:104B900001330B4423614FF0000AA165DFE713B92D
:104BA0002268D20701D50233F4E70123F2E74FF080
:104BB00067090E9B994205DB23682161D807EAD576
:104BC0004B1CE7E70029CCBF0122C1F102021344CC
:104BD000E0E723685A0507D4236942463146284650
:104BE000B84701302BD164E7B9F1650F40F2DD80A1
:104BF000D4E9120100220023FBF7D6FE002833D0AF
:104C0000012331462846354AB84701303FF451AFB9
:104C1000DDE90D239A4202DB2368D8070FD5DDE9D1
:104C2000092331462846B84701303FF442AF4FF0E0
:104C3000000804F11A090E9B013B434509DC236877
:104C40009B0700F10481E0680F9B9842B8BF1846AB
:104C500031E701234A4631462846B84701303FF440
:104C600028AF08F10108E6E70D9B002B38DC012393
:104C700031462846194AB84701303FF41AAFDDE9FA
:104C80000D32134302D12368D907D8D5DDE90923B2
:104C900031462846B84701303FF40BAF4FF00009CA
:104CA00004F11A0A0D9B5B424B4501DC0E9B94E715
:104CB0000123524631462846B84701303FF4F9AE49
:104CC00009F10109EEE700BFFFFFEF7F3A7D000821
:104CD0003E7D0008427D0008467D00084A7D0008B0
:104CE0000E9AA36D9A42A8BF1A46002A914637DC55
:104CF0004FF0000B29EAE97904F11A02D4F858A020
:104D0000AAEB09035B4533DCDDE90D239A423BDB6B
:104D10002368DA0738D4DDE90D32A2EB0309A2EBF0
:104D20000A029145A8BF9146B9F1000F34DC4FF05B
:104D3000000829EAE97904F11A0ADDE90D239B1A32
:104D4000A3EB090343457FF77AAF0123524631466F
:104D50002846B84701303FF4ACAE08F10108ECE753
:104D60001346314642462846B8470130C0D1A0E636
:104D70000123314628460B92B84701303FF499AEE3
:104D80000B9A0BF1010BB9E73146DDE909232846FF
:104D9000B8470130BFD18CE64B463146284608EB78
:104DA0000A02B8470130C2D183E60E9A012A01DC1B
:104DB000DB0739D50123424631462846B847013042
:104DC0003FF477AEDDE9092331462846B847013084
:104DD0003FF46FAED4E9120100220023DDF83890D1
:104DE000FBF7E2FDD8B909F1FF3308F101023146C2
:104DF0002846B84701300ED15BE601234A463146CA
:104E00002846B84701303FF454AE08F101080E9B24
:104E1000013B4345F1DC534604F15002DEE64FF01E
:104E2000000804F11A09F2E701234246DFE70123F3
:104E30004A4631462846B84701303FF43AAE08F1B9
:104E40000108E3680F995B1A4345F0DCFBE64FF07D
:104E5000000804F11909F4E72DE9F04716469946D0
:104E60008A680B6907469342B8BF1346336091F8CE
:104E700043200C46DDF820800AB1013333602368FB
:104E8000990642BF336802333360256815F0060582
:104E900006D104F1190AE36832689B1AAB422BDC95
:104EA00094F84320131E226818BF0123920630D4C1
:104EB0004946384604F14302C047013023D02368F5
:104EC000226903F00603042B14BF002533684FF05A
:104ED000000608BFE56804F11A0408BFED1A54F88B
:104EE000123C08BF25EAE5759342C4BF9B1AED1832
:104EF000B5421AD1002008E00123524649463846FF
:104F0000C047013003D14FF0FF30BDE8F0870135D5
:104F1000C1E73020E11881F843005A1C94F845108D
:104F20002244023382F84310C2E701232246494655
:104F30003846C0470130E6D00136D9E72DE9FF47B2
:104F40000F7E9146782F80460C469A460C9D01F1C3
:104F5000430207D8622F0AD8002F00F0D580582FBF
:104F600000F0C18004F1420584F842703AE0A7F1F4
:104F70006303152BF6D801A151F823F0D54F000893
:104F8000E94F0008654F0008654F0008654F0008AD
:104F9000654F0008E94F0008654F0008654F00089D
:104FA000654F0008654F0008EF50000815500008D5
:104FB000A9500008654F0008654F0008115100080E
:104FC000654F000815500008654F0008654F000840
:104FD000B15000082B681A1D1B682A6004F14205B5
:104FE00084F842300123A0E020682B68070603F113
:104FF0000401296001D51E6803E04606FBD5B3F91C
:105000000060002E03DA2D23764284F843300A2311
:10501000594812E02B682068191D2960050601D542
:105020001E6802E04106FBD51E886F2F0CBF0823C7
:105030000A235148002184F843106568002DA8BF59
:105040002168A560A4BF21F0040121600EB9002DE4
:105050004BD01546B6FBF3F103FB1167C75D05F8AE
:10506000017D3746BB420E46F4D9082B0BD123688D
:10507000DE0708D5236961689942DEBF302305F851
:10508000013C05F1FF35521B22614B46214640464B
:10509000CDF800A003AAFFF7DFFE01304AD14FF0A0
:1050A000FF3004B0BDE8F087236843F0200323609D
:1050B0007827324884F84570236829681F0651F81C
:1050C000046B02D45F0648BFB6B2DF0748BF43F0A7
:1050D0002003296048BF23601EB9236823F0200302
:1050E00023601023A6E72448E4E71546BDE72B68B4
:1050F0002668181D6169286035061B6801D519608E
:1051000002E07006FBD51980002315462361BCE739
:105110002B6800211A1D2A601D686268284600F06D
:10512000C1F908B1401B606063682361002384F803
:105130004330AAE72A46494640462369D047013012
:10514000ADD023689B0713D4E068039B9842B8BF97
:105150001846A6E70123324649464046D04701306B
:105160009DD00135E36803995B1AAB42F2DCEBE7B3
:10517000002504F11906F5E74C7D00085D7D000867
:10518000002310B50446C0E90033C0E9043383604E
:1051900081814366C2818361194608225C3000F038
:1051A00002F9054B24626362044BA362044BE36281
:1051B000044B236310BD00BF215300084353000874
:1051C0007B5300089F530008024A0349034800F03C
:1051D00069B800BF140000203D6E000820000020C8
:1051E00041680C4B10B59942044601D001F026FEEF
:1051F000A168094B994202D0204601F01FFEE168E8
:10520000064B994204D02046BDE8104001F016BE7E
:1052100010BD00BF1005002078050020E00500202B
:1052200010B50B4B0B4C0C4A20461A60042100228F
:10523000FFF7A6FF04F1680001220921FFF7A0FF94
:1052400004F1D0000222BDE810401221FFF798BF00
:105250004806002010050020C9510008014800F050
:105260001FB900BF51060020014800F01AB900BF65
:105270005106002010B50446FFF7F0FF236A1BB16A
:10528000BDE81040FFF7F0BF044B2362044B1B68DE
:10529000002BF5D1FFF7C4FFF2E700BFE151000892
:1052A000480600202DE9F8430746884614460026A4
:1052B000D4E90195B9F1010905D52468002CF7D18D
:1052C0003046BDE8F883AB89012B07D9B5F90E301C
:1052D000013303D029463846C04706436835E9E71D
:1052E0000EB46FF0004100B59CB01DAB029006906B
:1052F000079104910848094953F8042B0591006867
:1053000002A9019301F01AFC0022029B1A701CB042
:105310005DF804EB03B070476C0000200802FFFF4B
:1053200010B50C46B1F90E1000F06CF80028ABBFB8
:10533000636DA3891B1823F48053ACBF6365A381FD
:1053400010BD2DE9F0411F468B890546DB050C4653
:10535000164605D502230022B1F90E1000F040F8E0
:10536000A389324623F48053A38128463B46B4F9EF
:105370000E10BDE8F04100F057B810B50C46B1F979
:105380000E1000F02DF8431CA38915BF606523F4AF
:10539000805343F48053A38118BFA38110BDB1F99A
:1053A0000E1000F00DB803460244934200D170473E
:1053B00003F8011BF9E70000004870476001002076
:1053C00038B50023054D044608462B60FCF780FDE8
:1053D000431C02D12B6803B1236038BD4C0600206A
:1053E00038B50446084611460022054D2A601A4683
:1053F000FCF792FD431C02D12B6803B1236038BD3A
:105400004C06002038B50446084611460022054DDA
:105410002A601A46FCF723FD431C02D12B6803B116
:10542000236038BD4C06002038B5044608461146B6
:105430000022054D2A601A46FCF72EFD431C02D1BE
:105440002B6803B1236038BD4C060020014B18685F
:10545000704700BF6C00002070B500260C4D0D4C4D
:10546000641BA410A64209D102F088F800260A4D58
:105470000A4C641BA410A64205D170BD55F8043B2C
:1054800098470136EEE755F8043B98470136F2E7B6
:10549000AC800008AC800008AC800008B080000838
:1054A00070477047034610B5C9B20244934218468C
:1054B00001D1002003E0047801338C42F6D110BD05
:1054C0002DE9F74F03690C690746A3427FDB013CD6
:1054D00000F1140501F1140805EB8403019358F859
:1054E000243055F8242001339A42B2FBF3F64FEAF8
:1054F000840B08EB840931D34FF0000E4046AC46D4
:10550000F24650F8042B93B206FB03E34FEA124E27
:105510001A0C9BB206FB0E22AAEB0303DCF800A0D8
:105520004FEA124E1FFA8AFA5344DCF800A092B2F6
:10553000C2EB1A4202EB23429BB243EA024381458B
:105540004FEA224A4CF8043BDBD255F80B302BB91A
:10555000019B043B9D421A462DD33C61384601F025
:1055600095F9002823DB29460020013658F8042B42
:10557000D1F800C093B2C31A120C1FFA8CF0034486
:10558000C2EB1C4202EB23429BB243EA0243C145F9
:105590004FEA224041F8043BE8D255F8242005EBBD
:1055A000840322B9043B9D421A460AD33C6130462B
:1055B00003B0BDE8F08F1268043B002ACDD1013C56
:1055C000C8E71268043B002AF0D1013CEBE7002059
:1055D000EEE70000000000002DE9F04F16461F46E0
:1055E000C46999B00546CDE90467DDF8948074B9C3
:1055F000102000F01DFE0246E86120B9EF21AC4BFF
:10560000AC4801F07BFCC0E901440460C460EB6974
:10561000196851B15A68012393404A608B6028464B
:1056200000F0FAFE0022EB691A603B1EAFBF0023B8
:10563000012223F000430593A8BFC8F80030DDF82D
:1056400014909D4BB8BFC8F8002033EA090319D164
:1056500042F20F73249A1360C9F31303334300F02B
:105660008985269B53B9954B23E0954B03930833CB
:10567000269A1360039819B0BDE8F08F8F4B0393FF
:105680000333F5E7DDE90434CDE90C34DDE90C0141
:1056900000220023FBF788F9804660B10123249A99
:1056A0001360269B002B00F06285864B269A1360C0
:1056B000013B0393DEE716AB019317AB009328463B
:1056C000DDE90C2301F08AF9C9F30A548246002C63
:1056D0007ED0DDE90C010D9BA4F2FF34C3F313036C
:1056E00043F07F5343F44013CDF84C801946002219
:1056F000754BFAF739FD68A3D3E90023FAF7ECFEFE
:1057000067A3D3E90023FAF731FD064620460F468A
:10571000FAF778FE64A3D3E90023FAF7DDFE024628
:105720000B4630463946FAF721FD06460F46FBF791
:1057300083F900228346002330463946FBF73EF9C1
:1057400048B15846FAF75EFE32463B46FBF72CF965
:1057500008B90BF1FF3BBBF1160F57D8DDE90C017F
:105760005A4B03EBCB03D3E90023FBF727F90028BF
:105770004ED000230BF1FF3B0F93169B1B1B5A1EB1
:1057800046BFC3F1010900234FF00009099248BF49
:105790000993BBF1000F3DDB099BCDF838B05B44AA
:1057A000099300230A93229B092B67D8052BC4BFBA
:1057B000043B2293229BC8BF0024A3F10203D8BF5D
:1057C0000124032B00F28680DFE803F02C393756E2
:1057D000DDE916431C4404F23243202BC1BFC3F160
:1057E000400309FA03F904F2124326FA03F3D6BF81
:1057F000C3F1200349EA030006FA03F0FAF7F2FDC9
:105800000122A1F1F873013C13926FE70123B3E782
:105810000F90B2E7CBF100030A930023A9EB0B0929
:105820000E93C0E700230B93239B002B55DC012331
:105830001A460693089323920BE00123F3E7002313
:105840000B93239B5B4406930133012B0893B8BF52
:10585000012300210422E86902F114069E4240D986
:105860004160284600F098FD039000283CD1024694
:1058700040F2AF11164BC3E60123E1E701240023F8
:105880000B9422934FF0FF330022069308931223C8
:10589000D1E700BFAFF3008061436F63A787D23FBA
:1058A000B3C8608B288AC63FFB799F501344D33F0F
:1058B0007B7D0008927D00080000F07F777D000866
:1058C0006E7D00084B7D00080000F83F807E0008D8
:1058D000EA7D000801230B93D4E7239B06930893EA
:1058E000B7E701315200B7E7EB69039A1A60089BEA
:1058F0000E2B00F2A880002C00F0A580BBF1000F59
:1059000034DD9A4B0BF00F0203EBC2031BF4807FD4
:10591000D3E90034CDE910344FEA2B1416D0DDE979
:105920000C01934B0327D3E90823FAF7FFFECDE9D7
:10593000040104F00F048E4E54B9DDE91023DDE9B3
:105940000401FAF7F3FECDE9040129E00227F2E7AA
:10595000E10708D5DDE91001D6E90023FAF7BCFD1F
:10596000CDE91001013764100836E5E700F0A580A5
:10597000DDE90C01CBF100047C4B04F00F0203EBDA
:10598000C203D3E90023FAF7A7FD02270023CDE9DC
:105990000401774E2411002C40F08480002BD2D1DA
:1059A000DDE90434CDE910340F9B002B00F0878033
:1059B000DDE9100100226F4BFBF700F800287ED0D4
:1059C000089B002B7BD0069B002B38DDDDE9100106
:1059D0000022694BFAF780FDCDE90401069C0BF12A
:1059E000FF3801373846FAF70DFDDDE90423FAF7F1
:1059F00073FD0022614BFAF7B9FBA1F15076CDE9B6
:105A000010011196002C5DD1DDE9040100225C4BF0
:105A1000FAF7AAFB02460B46CDE904233346109A57
:105A2000FAF7EAFF002840F09582DDE90401109AB8
:105A300006F10043FAF7C2FF002840F08982DDE951
:105A40000C34CDE90434179B002BC0F25181BBF11B
:105A50000E0F00F34D81454B03EBCB03D3E900342C
:105A6000CDE90634239B002B80F2DA80089B002BC3
:105A700000F3D68040F06B82DDE906010022404B46
:105A8000FAF72AFDDDE90423FAF7ACFF089C264665
:105A9000002840F041823123039F0BF1010B07F8EE
:105AA000013B3DE2E20705D5D6E90023FAF714FDF4
:105AB00001230137641008366DE7022770E7D846E6
:105AC000089C8FE70399294B214412910B9903EB12
:105AD000C403DDE9106753E90223002954D00020F4
