:020000040800F2
:1000000000500020B122000881200008892000084B
:100010009120000899200008A1200008000000009D
:10002000000000000000000000000000A9200008FF
:10003000B520000800000000C1200008CD20000805
:10004000F9220008F9220008F9220008F922000824
:10005000F9220008F9220008F9220008F922000814
:10006000F9220008F9220008F9220008F922000804
:10007000F9220008F9220008F9220008F9220008F4
:10008000F9220008F9220008F9220008F9220008E4
:10009000F9220008F9220008F9220008E9200008E6
:1000A000F9220008F9220008F9220008F9220008C4
:1000B000F9220008F9220008F9220008F9220008B4
:1000C000F9220008F9220008F9220008F9220008A4
:1000D000F9220008F9200008F92200080D21000883
:1000E000F9220008F9220008F922000800000000A7
:1000F0000000000000000000000000000000000000
:0C01000000000000000000005FF808F1A3
:1001100010B5054C237833B9044B13B10448AFF341
:1001200000800123237010BDDC01002000000000CE
:100130002884000808B5034B1BB103490348AFF3FB
:10014000008008BD00000000E001002028840008B5
:10015000034613F8012B002AFBD1181A0138704707
:1001600081F0004102E000BF83F0004330B54FEA68
:1001700041044FEA430594EA050F08BF90EA020FD5
:100180001FBF54EA000C55EA020C7FEA645C7FEA68
:10019000655C00F0E2804FEA5454D4EB5555B8BF8B
:1001A0006D420CDD2C4480EA020281EA030382EAFC
:1001B000000083EA010180EA020281EA0303362D8E
:1001C00088BF30BD11F0004F4FEA01314FF4801C61
:1001D0004CEA113102D0404261EB410113F0004F73
:1001E0004FEA03334CEA133302D0524263EB43032A
:1001F00094EA050F00F0A780A4F10104D5F1200EC8
:100200000DDB02FA0EFC22FA05F2801841F1000122
:1002100003FA0EF2801843FA05F359410EE0A5F1F6
:1002200020050EF1200E012A03FA0EFC28BF4CF027
:10023000020C43FA05F3C01851EBE37101F00045DD
:1002400007D54FF0000EDCF1000C7EEB00006EEBEA
:100250000101B1F5801F1BD3B1F5001F0CD3490874
:100260005FEA30004FEA3C0C04F101044FEA4452CB
:1002700012F5800F80F09A80BCF1004F08BF5FEA52
:10028000500C50F1000041EB045141EA050130BD32
:100290005FEA4C0C404141EB0101013C28BFB1F544
:1002A000801FE9D291F0000F04BF01460020B1FA8F
:1002B00081F308BF2033A3F10B03B3F120020CDA62
:1002C0000C3208DD02F1140CC2F10C0201FA0CF040
:1002D00021FA02F10CE002F11402D8BFC2F1200CA5
:1002E00001FA02F120FA0CFCDCBF41EA0C0190405B
:1002F000E41AA2BF01EB0451294330BD6FEA0404A4
:100300001F3C1CDA0C340EDC04F11404C4F120028E
:1003100020FA04F001FA02F340EA030021FA04F3A0
:1003200045EA030130BDC4F10C04C4F1200220FAF7
:1003300002F001FA04F340EA0300294630BD21FA35
:1003400004F0294630BD94F0000F83F4801306BFFB
:1003500081F480110134013D4EE77FEA645C18BFEF
:100360007FEA655C29D094EA050F08BF90EA020F86
:1003700005D054EA000C04BF1946104630BD91EA7E
:10038000030F1EBF0021002030BD5FEA545C05D181
:100390004000494128BF41F0004130BD14F58004C0
:1003A0003CBF01F5801130BD01F0004545F0FE4134
:1003B00041F470014FF0000030BD7FEA645C1ABF69
:1003C000194610467FEA655C1CBF0B46024650EAA0
:1003D000013406BF52EA033591EA030F41F40021CC
:1003E00030BD00BF90F0000F04BF0021704730B552
:1003F0004FF4806404F132044FF000054FF0000127
:1004000050E700BF90F0000F04BF0021704730B5E7
:100410004FF4806404F1320410F0004548BF4042BC
:100420004FF000013EE700BF42004FEAE2014FEA11
:1004300031014FEA02701FBF12F07F4393F07F4FEC
:1004400081F06051704732F07F4208BF704793F0EF
:100450007F4F04BF41F40021704730B54FF4607402
:1004600001F0004521F000411CE700BF50EA010205
:1004700008BF704730B54FF000050AE050EA0102AE
:1004800008BF704730B511F0004502D5404261EB1E
:1004900041014FF4806404F132045FEA915C3FF45F
:1004A000D8AE4FF003025FEADC0C18BF03325FEAFC
:1004B000DC0C18BF033202EBDC02C2F1200300FAAD
:1004C00003FC20FA02F001FA03FE40EA0E0021FAD2
:1004D00002F11444BDE600BF70B54FF0FF0C4CF4C0
:1004E000E06C1CEA11541DBF1CEA135594EA0C0F72
:1004F00095EA0C0F00F0DEF82C4481EA030621EAAD
:100500004C5123EA4C5350EA013518BF52EA0335E7
:1005100041F4801143F4801338D0A0FB02CE4FF099
:100520000005E1FB02E506F00042E0FB03E54FF0C9
:100530000006E1FB03569CF0000F18BF4EF0010EC1
:10054000A4F1FF04B6F5007F64F5407404D25FEABD
:100550004E0E6D4146EB060642EAC62141EA555170
:100560004FEAC52040EA5E504FEACE2EB4F1FD0CB2
:1005700088BFBCF5E06F1ED8BEF1004F08BF5FEA30
:10058000500E50F1000041EB045170BD06F00046E2
:1005900046EA010140EA020081EA0301B4EB5C048F
:1005A000C2BFD4EB0C0541EA045170BD41F4801187
:1005B0004FF0000E013C00F3AB8014F1360FDEBFAC
:1005C000002001F0004170BDC4F10004203C35DA88
:1005D0000C341BDC04F11404C4F1200500FA05F30B
:1005E00020FA04F001FA05F240EA020001F00042AC
:1005F00021F0004110EBD37021FA04F642EB060122
:100600005EEA430E08BF20EAD37070BDC4F10C044B
:10061000C4F1200500FA04F320FA05F001FA04F20F
:1006200040EA020001F0004110EBD37041F10001FB
:100630005EEA430E08BF20EAD37070BDC4F1200506
:1006400000FA05F24EEA020E20FA04F301FA05F26E
:1006500043EA020321FA04F001F0004121FA04F216
:1006600020EA020000EBD3705EEA430E08BF20EAE6
:10067000D37070BD94F0000F0FD101F00046400020
:1006800041EB010111F4801F08BF013CF7D041EAA2
:10069000060195F0000F18BF704703F000465200A6
:1006A00043EB030313F4801F08BF013DF7D043EA77
:1006B0000603704794EA0C0F0CEA135518BF95EA2D
:1006C0000C0F0CD050EA410618BF52EA4306D1D1B4
:1006D00081EA030101F000414FF0000070BD50EAD3
:1006E000410606BF1046194652EA430619D094EA5D
:1006F0000C0F02D150EA013613D195EA0C0F05D147
:1007000052EA03361CBF104619460AD181EA03019A
:1007100001F0004141F0FE4141F470014FF0000052
:1007200070BD41F0FE4141F4780170BD70B54FF0ED
:10073000FF0C4CF4E06C1CEA11541DBF1CEA13556D
:1007400094EA0C0F95EA0C0F00F0A7F8A4EB05044F
:1007500081EA030E52EA03354FEA013100F0888046
:100760004FEA03334FF0805545EA131343EA12630F
:100770004FEA022245EA111545EA10654FEA0026C4
:100780000EF000419D4208BF964244F1FD0404F57D
:10079000407402D25B084FEA3202B61A65EB0305D9
:1007A0005B084FEA32024FF480104FF4002CB6EB96
:1007B000020E75EB030E22BFB61A754640EA0C0016
:1007C0005B084FEA3202B6EB020E75EB030E22BF56
:1007D000B61A754640EA5C005B084FEA3202B6EB97
:1007E000020E75EB030E22BFB61A754640EA9C0056
:1007F0005B084FEA3202B6EB020E75EB030E22BF26
:10080000B61A754640EADC0055EA060E18D04FEAE3
:10081000051545EA16754FEA06164FEAC30343EA83
:1008200052734FEAC2025FEA1C1CC0D111F4801F50
:100830000BD141EA00014FF000004FF0004CB6E749
:1008400011F4801F04BF01430020B4F1FD0C88BFE8
:10085000BCF5E06F3FF6AFAEB5EB030C04BFB6EBF3
:10086000020C5FEA500C50F1000041EB045170BDE6
:100870000EF0004E4EEA113114EB5C04C2BFD4EB13
:100880000C0541EA045170BD41F480114FF0000E97
:10089000013C90E645EA060E8DE60CEA135594EA13
:1008A0000C0F08BF95EA0C0F3FF43BAF94EA0C0F16
:1008B0000AD150EA01347FF434AF95EA0C0F7FF48B
:1008C00025AF104619462CE795EA0C0F06D152EADF
:1008D00003353FF4FDAE1046194622E750EA4106C3
:1008E00018BF52EA43067FF4C5AE50EA41047FF4D4
:1008F0000DAF52EA43057FF4EBAE12E74FF0FF3C39
:1009000006E000BF4FF0010C02E000BF4FF0010C09
:100910004DF804CD4FEA410C7FEA6C5C4FEA430C82
:1009200018BF7FEA6C5C1BD001B050EA410C0CBFD1
:1009300052EA430C91EA030F02BF90EA020F002033
:10094000704710F1000F91EA030F58BF994208BF9A
:1009500090422CBFD8176FEAE37040F00100704757
:100960004FEA410C7FEA6C5C02D150EA013C07D1AE
:100970004FEA430C7FEA6C5CD6D152EA033CD3D0F9
:100980005DF8040B704700BF8446104662468C46F3
:100990001946634600E000BF01B5FFF7B7FF002826
:1009A00048BF10F1000F01BD4DF808EDFFF7F4FF4F
:1009B0000CBF012000205DF808FB00BF4DF808EDDA
:1009C000FFF7EAFF34BF012000205DF808FB00BFFD
:1009D0004DF808EDFFF7E0FF94BF012000205DF81F
:1009E00008FB00BF4DF808EDFFF7CEFF94BF0120D4
:1009F00000205DF808FB00BF4DF808EDFFF7C4FFCD
:100A000034BF012000205DF808FB00BF4FEA410C15
:100A10007FEA6C5C02D150EA013C0AD14FEA430CF8
:100A20007FEA6C5C02D152EA033C02D14FF0000035
:100A300070474FF0010070474FEA410212F5001273
:100A400015D211D56FF47873B3EB625212D94FEA15
:100A5000C12343F0004343EA505311F0004F23FAFF
:100A600002F018BF404270474FF00000704750EA54
:100A7000013005D111F0004008BF6FF00040704711
:100A80004FF00000704700BF80B400AF00BF074BBD
:100A90001B7883F00103DBB2002BF8D1034B00225B
:100AA0001A7001231846BD4680BC704778020020AA
:100AB00080B400AF00BF074B1B7883F00103DBB2AB
:100AC000002BF8D1034B00221A7001231846BD46B3
:100AD00080BC70477802002080B582B000AF03462A
:100AE000FB71FB79002B0CD100224FF400411F4811
:100AF00001F0CEFF00224FF480711D4801F0C8FFC5
:100B00002EE0FB79012B0CD101224FF40041174854
:100B100001F0BEFF00224FF48071154801F0B8FFCC
:100B20001EE0FB79022B0CD100224FF400410F484C
:100B300001F0AEFF01224FF480710D4801F0A8FFD3
:100B40000EE0FB79032B0BD101224FF40041074843
:100B500001F09EFF01224FF48071054801F098FFDB
:100B6000FB7918460837BD4680BD00BF000C014028
:100B70000008014080B586B000AF0346FB8000232B
:100B8000FB750023BB75C0233B7300237B730223DB
:100B9000BB73FB7DFB73BB7D3B744FF6FF73BB8266
:100BA000FB881B0A9BB2DAB2BB8ADBB21340FB752F
:100BB000FB88DAB2BB8ADBB21340BB75FB7DFB73EB
:100BC000BB7D3B7407F10C014FF47A730522064894
:100BD00003F0A8FFFFF76CFF044AFB88138000BFF7
:100BE0001837BD4680BD00BF3C030020F80100203F
:100BF00080B584B000AF0346FB710B46BB71134652
:100C00007B710023FB73C0233B7202237B720123A1
:100C1000BB72FB7BFB72FB79002B36D0FB79012B7F
:100C200004D1FB7B43F02003FB732EE0FB79022B06
:100C300004D1FB7B43F04003FB7326E0FB79032BDD
:100C400004D1FB7B43F06003FB731EE0FB79042BB4
:100C500004D1FB7B63F07F03FB7316E0FB79052B6C
:100C600004D1FB7B63F05F03FB730EE0FB79062B83
:100C700004D1FB7B63F03F03FB7306E0FB79072B9A
:100C800003D1FB7B63F01F03FB73BB79002B16D0F2
:100C9000BB79012B04D1FB7B63F07F03FB730EE078
:100CA000BB79022B04D1FB7B43F01003FB7306E0FE
:100CB000BB79032B03D1FB7B43F01803FB737B79D8
:100CC000002B36D07B79012B04D1FB7B43F0010351
:100CD000FB732EE07B79022B04D1FB7B43F00203F4
:100CE000FB7326E07B79032B04D1FB7B43F00303EA
:100CF000FB731EE07B79042B04D1FB7B43F00403E0
:100D0000FB7316E07B79052B04D1FB7B43F00503D5
:100D1000FB730EE07B79062B04D1FB7B43F00603CB
:100D2000FB7306E07B79072B03D1FB7B43F00703C2
:100D3000FB73FB7BFB7207F108014FF47A7304220B
:100D4000054803F0EFFEFFF7B3FE044AFB7B937008
:100D500000BF1037BD4680BD3C030020F8010020D5
:100D600080B584B000AF0346FB710B46BB711346E0
:100D70007B710023FB73C0233B7203237B7201232F
:100D8000BB72FB7BFB72FB79002B16D0FB79012B2E
:100D900004D1FB7B43F04003FB730EE0FB79022B95
:100DA00004D1FB7B63F07F03FB7306E0FB79032B2D
:100DB00003D1FB7B63F03F03FB73BB79002B03D0B4
:100DC000FB7B43F02003FB737B79002B16D07B79F0
:100DD000012B04D1FB7B43F00103FB730EE07B7915
:100DE000022B04D1FB7B43F00203FB7306E07B790B
:100DF000032B03D1FB7B43F00303FB73FB7BFB72F1
:100E000007F108014FF47A730422064803F08AFEC2
:100E1000FFF74EFE044AFB7BD37000BF1037BD4680
:100E200080BD00BF3C030020F801002080B584B0E5
:100E300000AF0346FB710023FB73C0233B72042306
:100E40007B720123BB72FB7BFB72FA7BFB79134342
:100E5000FB73FB7BFB7207F108014FF47A730422EA
:100E6000054803F05FFEFFF723FE044AFB7B137186
:100E700000BF1037BD4680BD3C030020F8010020B4
:100E800090B585B000AF0446084611461A46234681
:100E9000FB710346BB710B467B7113463B7100230C
:100EA000FB73C0233B7205237B720123BB72FB7B68
:100EB000FB72FB7983F00103DBB2002B03D1FB7BD8
:100EC00063F07F03FB73BB79002B03D0FB7B43F004
:100ED0004003FB737B7983F00103DBB2002B03D16A
:100EE000FB7B43F01003FB733B79002B36D03B793F
:100EF000012B04D1FB7B43F00103FB732EE03B7914
:100F0000022B04D1FB7B43F00203FB7326E03B7909
:100F1000032B04D1FB7B43F00303FB731EE03B79FF
:100F2000042B04D1FB7B43F00403FB7316E03B79F5
:100F3000052B04D1FB7B43F00503FB730EE03B79EB
:100F4000062B04D1FB7B43F00603FB7306E03B79E1
:100F5000072B03D1FB7B43F00703FB73FB7BFB7287
:100F600007F108014FF47A730422064803F0DAFD12
:100F7000FFF79EFD044AFB7B537100BF1437BD464B
:100F800090BD00BF3C030020F801002080B586B072
:100F900000AF0346FB800023FB750023BB75C02315
:100FA0003B7306237B730223BB73FB7DFB73BB7D0B
:100FB0003B744FF6FF73BB82FB881B0A9BB2DAB20D
:100FC000BB8ADBB21340FB75FB88DAB2BB8ADBB2AB
:100FD0001340BB75FB7DFB73BB7D3B7407F10C01BC
:100FE0004FF47A730522064803F09CFDFFF760FD7D
:100FF000044AFB88D38000BF1837BD4680BD00BFC0
:101000003C030020F801002080B586B000AF034605
:10101000FB800B467B7113463B7107F108030022EE
:101020001A605A609A60DA60FB883B810323BB72C6
:101030000023FB7200233B7300237B730023BB73ED
:101040000023FB737B793B743B797B740123BB7476
:101050000023FB7400233B750023FB823B89184669
:10106000FFF788FD1E2001F0ABF9BB7AF97A3A7BD5
:101070001846FFF7BDFD1E2001F0A2F97B7BB97B6E
:10108000FA7B1846FFF76CFE1E2001F099F93B7CB5
:101090001846FFF7CBFE1E2001F092F9787CB97C50
:1010A000FA7C3B7DFFF7ECFE1E2001F089F9FB8AFC
:1010B0001846FFF76BFF1E2001F082F900BF1837BA
:1010C000BD4680BD90B484B000AF3C1D84E80700ED
:1010D000FB70084B1C463B1D93E8070084E80700A3
:1010E000054AFB781370044B1B7818461037BD4631
:1010F00090BC7047000200200C02002080B500AFB9
:1011000001F0FCF800F096F800F0F2F900F09CF91C
:1011100000F0C4F900F0D4F800F000F900213D48D7
:1011200002F082FF04213B4802F07EFF082139488B
:1011300002F07AFF0C21374802F076FF01224FF4CB
:101140000051354801F0A4FC0320FFF7C5FCFFF770
:101150009BFC00224FF400512F4801F099FC4FF402
:10116000FA7001F02DF901224FF400512A4801F0E4
:101170008FFC2A4A002307CAFFF7A4FF274B01224E
:101180005A80264B02225A72244B03221A80234B88
:1011900004221A72214B1B88204A117A0022184619
:1011A000FFF732FF4FF4FA7001F00AF900224FF412
:1011B0000051194801F06CFC4FF4FA7001F000F98D
:1011C00001224FF40051144801F062FC0020FFF7A7
:1011D00083FC01221249134803F027FD00F02EFB87
:1011E0000021002000F0A6FC0F49104804F0E0FFA9
:1011F00001220F490D4800F031FD00F0E3FB4FF4F0
:101200007A7001F0DDF8002000F00EFC00F0DAFB4F
:1012100000BFFDE7F402002000100140CC030020D5
:10122000100200203C030020408400087C020020C3
:101230000000002080B590B000AF07F1180328220D
:101240000021184605F019F83B1D00221A605A606B
:101250009A60DA601A610123BB614FF48033FB614D
:1012600000233B620123BB6202237B634FF4803384
:10127000BB634FF4E013FB6307F11803184602F059
:101280001BFA0346002B01D000F0D2FA0F237B603B
:101290000223BB600023FB604FF480633B614FF48B
:1012A00080637B613B1D0221184602F087FC0346E8
:1012B000002B01D000F0BCFA00BF4037BD4680BD16
:1012C00080B500AF124B134A1A60114B124A5A6094
:1012D0000F4B00229A600E4B0022DA600C4B4FF449
:1012E00080421A610A4B00225A61094B00229A611E
:1012F000074B0022DA61064B00221A62044801F013
:1013000011FC0346002B01D000F092FA00BF80BD13
:10131000A002002000540040A086010080B58EB0DD
:1013200000AF07F1280300221A605A609A60DA6061
:1013300007F1200300221A605A603B1D00221A6048
:101340005A609A60DA601A615A619A613D4B4FF0B7
:1013500080421A603B4B47225A603A4B00229A6007
:10136000384B40F2E732DA60364B00221A61354BD7
:1013700000229A61334802F0AFFD0346002B01D0F2
:1013800000F056FA4FF48053BB6207F12803194668
:101390002C4802F0ADFF0346002B01D000F048FAC4
:1013A000284802F0E8FD0346002B01D000F040FA87
:1013B00000233B6200237B6207F12003194621488A
:1013C00003F002FB0346002B01D000F031FA60234A
:1013D0007B600023BB600023FB6000237B613B1D1F
:1013E00000221946174802F0C1FE0346002B01D027
:1013F00000F01EFA3B1D04221946124802F0B6FE08
:101400000346002B01D000F013FA3B1D08221946B9
:101410000C4802F0ABFE0346002B01D000F008FAA6
:101420003B1D0C221946074802F0A0FE0346002B84
:1014300001D000F0FDF9034800F05AFD00BF383735
:10144000BD4680BDF402002080B500AF114B124AAA
:101450001A60104B4FF416525A600E4B00229A60DD
:101460000C4B0022DA600B4B00221A61094B0C2254
:101470005A61084B00229A61064B0022DA61054846
:1014800003F000FB0346002B01D000F0D1F900BFB0
:1014900080BD00BF3C0300200038014080B500AF94
:1014A000114B124A1A60104B4FF416525A600E4BF1
:1014B00000229A600C4B0022DA600B4B00221A616A
:1014C000094B0C225A61084B00229A61064B0022FC
:1014D000DA61054803F0D6FA0346002B01D000F08C
:1014E000A7F900BF80BD00BF840300200048004072
:1014F00080B588B000AF07F1100300221A605A606F
:101500009A60DA60574B9B69564A43F01003936127
:10151000544B9B6903F01003FB60FB68514B9B69C4
:10152000504A43F0200393614E4B9B6903F0200324
:10153000BB60BB684B4B9B694A4A43F00403936111
:10154000484B9B6903F004037B607B68454B9B69B8
:10155000444A43F008039361424B9B6903F008033C
:101560003B603B6800224FF400513F4801F090FA85
:1015700000224FF488713D4801F08AFA002248F2B7
:1015800001013B4801F084FA4FF400533B61012311
:101590007B610023BB610223FB6107F11003194645
:1015A000314801F0F1F810233B6101237B610023F6
:1015B000BB610223FB6107F1100319462B4801F0C0
:1015C000E3F801233B6101237B610023BB6102231C
:1015D000FB6107F110031946254801F0D5F80223F5
:1015E0003B6100237B610123BB6107F110031946B6
:1015F0001F4801F0C9F84FF400433B6101237B61B0
:101600000223BB610223FB6107F11003194618484E
:1016100001F0BAF84FF480733B6101237B61022330
:10162000BB610223FB6107F1100319460F4801F06B
:10163000ABF84FF400733B610E4B7B610123BB6140
:1016400007F1100319460A4801F09EF80022002114
:10165000172000F0B0FF172000F0C9FF00BF2037AF
:10166000BD4680BD0010024000100140000801404E
:10167000000C01400000211080B582B000AF7860FE
:101680007B68484A934240F083804FF400514648BB
:1016900001F016FA454B1B78AA2B06D1444B0122C8
:1016A0001A70444B00221A8072E0414B1B78002BC9
:1016B0006ED03E4B1B78BB2B3ED13D4B00221A70A7
:1016C00001224FF40051384801F0E2F9002000F007
:1016D000ABF9384B1B881A46374B0021995400212F
:1016E000002000F027FA01223449354800F0B6FA0C
:1016F0000F21002000F01EFA012230492E4800F090
:10170000ADFA00F05FF92B4B1B881A4600212A48DE
:1017100004F0B3FD274B00221A80264B1A8864235D
:101720002549284803F0FEF9224B1B881A46002160
:10173000214804F0A2FD2BE01E4B1B88622B27D80A
:101740001C4B1B885A1C91B21A4A11801A46174B1F
:101750001978194B9954002000F066F9154B1B8835
:101760001A46154B002199540021002000F0E2F99F
:1017700001221249124800F071FA0F21002000F0F6
:10178000D9F901220D490C4800F068FA00F01AF965
:1017900001220649034803F048FA00BF0837BD4656
:1017A00080BD00BF3C03002000100140100200205B
:1017B0000D0200200E020020140200200000002074
:1017C0004C8400088403002080B582B000AF7860AC
:1017D000094803F0F5FC0346084A1360074B1B68F1
:1017E000082B04D101220649034803F01EFA00BF6A
:1017F0000837BD4680BD00BF3C0300209C0200208E
:101800001002002080B483B000AF0346FB80FB8849
:10181000022B06D0FB88B3F5007F02D1034B0122D7
:101820001A7000BF0C37BD4680BC7047780200209C
:1018300080B400AF72B600BF00BFFDE780B582B0D4
:1018400000AF00F031FA44F62063012278215B48B2
:1018500001F0AAFB0346002B01D00023A9E040F6CB
:10186000C4137B6002E07B68013B7B607B68002BDC
:10187000F9D1AE220021782000F090FA2022002138
:10188000782000F08BFA10220021782000F086FAF0
:10189000B0220021782000F081FAC82200217820AF
:1018A00000F07CFA00220021782000F077FA102264
:1018B0000021782000F072FA40220021782000F008
:1018C0006DFA81220021782000F068FAFF220021C1
:1018D000782000F063FAA1220021782000F05EFA5F
:1018E000A6220021782000F059FAA82200217820B1
:1018F00000F054FA1F220021782000F04FFAA422B1
:101900000021782000F04AFAD3220021782000F04C
:1019100045FA00220021782000F040FAD52200216B
:10192000782000F03BFAF0220021782000F036FA0F
:10193000D9220021782000F031FA222200217820DB
:1019400000F02CFADA220021782000F027FA022297
:101950000021782000F022FADB220021782000F01C
:101960001DFA20220021782000F018FA8D22002193
:10197000782000F013FA14220021782000F00EFAEB
:10198000AF220021782000F009FA2E2200217820D1
:1019900000F004FA002000F047F800F013F8084BBC
:1019A00000221A80064B00225A80054B01225A71F0
:1019B000012318460837BD4680BD00BFA0020020A5
:1019C0007C05002080B582B000AF0023FB7121E0D0
:1019D000FB79503BDBB21A460021782000F0DEF99B
:1019E00000220021782000F0D9F91022002178206F
:1019F00000F0D4F9FA791346DB009B1A1A01D31AC6
:101A0000084A1A4469234021782000F061F9FB79E3
:101A10000133FB71FB79072BDAD900BF00BF083710
:101A2000BD4680BDD803002080B582B000AF03461C
:101A3000FB71FB79002B01D1002300E0FF234FF461
:101A4000D2721946034804F018FC00BF0837BD469F
:101A500080BD00BFD803002090B482B000AF034621
:101A6000FB800B46BB801346FB70FB88682B58D865
:101A7000BB881F2B55D82D4B1B79002B06D0FB782C
:101A8000002B0CBF01230023DBB2FB70FB78012B82
:101A900022D1FA88BB88DB0898B201460B46DB00EE
:101AA0005B1A1901CB1A1344214AD35C5AB2BB8882
:101AB00003F00703012101FA03F35BB213435CB2A5
:101AC000FA8801460B46DB005B1A1901CB1A134456
:101AD000E1B2174AD15425E0FA88BB88DB0898B2F6
:101AE00001460B46DB005B1A1901CB1A1344104A5E
:101AF000D35C5AB2BB8803F00703012101FA03F358
:101B00005BB2DB435BB213405CB2FA8801460B4622
:101B1000DB005B1A1901CB1A1344E1B2044AD15419
:101B200000E000BF0837BD4690BC70477C05002030
:101B3000D803002080B483B000AF03460A46FB8080
:101B40001346BB80054AFB881380044ABB88538038
:101B500000BF0C37BD4680BC704700BF7C0500202D
:101B600080B586B000AF03463960FB711346BB7188
:101B7000394B1B881A463B681B781344682B07DCDB
:101B8000354B5B881A463B685B7813441F2B01DD9D
:101B900000235DE000237B614BE03B685A68FB79E2
:101BA000203B3968497801FB03F319467B690B44F4
:101BB0005B0013441B88FB6000233B6130E0FA6844
:101BC0003B6902FA03F303F40043002B10D0224BCD
:101BD0001A883B699BB2134498B21F4B5A887B69A1
:101BE0009BB213449BB2BA791946FFF735FF14E054
:101BF000194B1A883B699BB2134498B2164B5A880A
:101C00007B699BB2134499B2BB79002B0CBF0123B3
:101C10000023DBB21A46FFF71FFF3B6901333B612C
:101C20003B681B781A463B699342C8D37B690133F2
:101C30007B613B685B781A467B699342ADD3064B68
:101C40001B883A68127813449AB2034B1A80FB79C6
:101C500018461837BD4680BD7C05002080B584B08D
:101C600000AFF860B9601346FB7112E0FB681B78A7
:101C7000FA79B9681846FFF773FF03461A46FB68FE
:101C80001B789A4202D0FB681B7808E0FB6801339E
:101C9000FB60FB681B78002BE8D1FB681B781846BB
:101CA0001037BD4680BD000080B483B000AF074B45
:101CB0007B6002E07B68013B7B607B68002BF9D195
:101CC00000BF00BF0C37BD4680BC704790D00300FA
:101CD00090B5C7B002AF0446084607F58871A1F574
:101CE00088710A60194607F58873A3F20913224622
:101CF0001A7007F58873A3F5857302461A7007F505
:101D00008873A3F586730A461A8007F58873A3F5CE
:101D1000827307F58872A2F5857212781A70002313
:101D200087F80F3115E097F80F3107F58872A2F5A3
:101D3000887212681A4497F80F310133117807F549
:101D40008872A2F58272D15497F80F31013387F867
:101D50000F3197F80F319BB207F58872A2F58672A2
:101D600012889A42DFD807F58873A3F209131B780B
:101D700099B207F58873A3F586731B8801339BB26C
:101D800007F10C020A200090034801F00FF800BF91
:101D900007F58A77BD4690BDA002002080B586B0C9
:101DA00002AF0346FB710B46BB7113467B71BB79D7
:101DB0003B737B797B73FB7999B207F10C020A23A1
:101DC00000930223034800F0F1FF00BF1037BD4627
:101DD00080BD00BFA002002080B485B000AF154BCD
:101DE0009B69144A43F001039361124B9B6903F012
:101DF0000103BB60BB680F4BDB690E4A43F08053A5
:101E0000D3610C4BDB6903F080537B607B680A4B2A
:101E10005B68FB60FB6823F0E063FB60FB6843F0FA
:101E20000073FB60044AFB68536000BF1437BD4673
:101E300080BC7047001002400000014080B588B0AF
:101E400000AF786007F1100300221A605A609A60B0
:101E5000DA607B681B68154A934223D1144B9B6957
:101E6000134A43F008039361114B9B6903F0080385
:101E7000FB60FB68C0233B6112237B610323FB6192
:101E800007F1100319460B4800F07EFC084BDB6994
:101E9000074A43F40013D361054BDB6903F40013D5
:101EA000BB60BB6800BF2037BD4680BD005400400A
:101EB00000100240000C014080B485B000AF786093
:101EC0007B681B68B3F1804F0BD1084BDB69074A75
:101ED00043F00103D361054BDB6903F00103FB60B1
:101EE000FB6800BF1437BD4680BC7047001002403D
:101EF00080B588B000AF786007F1100300221A6047
:101F00005A609A60DA607B681B68B3F1804F17D122
:101F10000D4B9B690C4A43F0040393610A4B9B6988
:101F200003F00403FB60FB680F233B6102237B612A
:101F30000223FB6107F110031946044800F024FC5A
:101F400000BF2037BD4680BD0010024000080140A0
:101F500080B58AB000AF786007F1180300221A60DC
:101F60005A609A60DA607B681B68404A93423AD1B3
:101F70003F4B9B693E4A43F4804393613C4B9B69D2
:101F800003F480437B617B69394B9B69384A43F09A
:101F900004039361364B9B6903F004033B613B6987
:101FA0004FF40073BB610223FB6103237B6207F1E3
:101FB000180319462F4800F0E7FB4FF48063BB611C
:101FC0000023FB6100233B6207F1180319462948EF
:101FD00000F0DAFB00220021252000F0ECFA252099
:101FE00000F005FB3EE07B681B68234A934239D131
:101FF0001F4BDB691E4A43F48023D3611C4BDB6912
:1020000003F48023FB60FB68194B9B69184A43F07B
:1020100008039361164B9B6903F00803BB60BB6820
:102020004FF48063BB610223FB6103237B6207F1F2
:1020300018031946114800F0A7FB4FF40063BB6179
:102040000023FB6100233B6207F1180319460B488C
:1020500000F09AFB00220021272000F0ACFA272094
:1020600000F0C5FA00BF2837BD4680BD00380140EA
:10207000001002400008014000480040000C0140F0
:1020800080B400AF00BFFDE780B400AF00BFFDE744
:1020900080B400AF00BFFDE780B400AF00BFFDE734
:1020A00080B400AF00BFFDE780B400AF00BFBD4605
:1020B00080BC704780B400AF00BFBD4680BC704795
:1020C00080B400AF00BFBD4680BC704780B500AF94
:1020D000044B1B680133034A136000F055F900BF3D
:1020E00080BD00BF8405002080B500AF4FF40070B4
:1020F00000F000FD00BF80BD80B500AF024802F0D7
:10210000B9FD00BF80BD00BF3C03002080B500AF1B
:10211000024802F0AFFD00BF80BD00BF8403002075
:1021200080B400AF01231846BD4680BC704780B51F
:1021300082B000AF7860396004F0F2F803461622EE
:102140001A604FF0FF3318460837BD4680BD80B592
:1021500082B000AF78604FF0FF317868FFF7E7FF9B
:1021600000BFFDE780B586B000AFF860B9607A6067
:1021700000237B610AE0AFF300800146BB685A1C74
:10218000BA60CAB21A707B6901337B617A697B6875
:102190009A42F0DB7B6818461837BD4680BD80B593
:1021A00086B000AFF860B9607A6000237B6109E017
:1021B000BB685A1CBA601B781846AFF300807B6975
:1021C00001337B617A697B689A42F1DB7B68184650
:1021D0001837BD4680BD80B483B000AF78604FF043
:1021E000FF3318460C37BD4680BC704780B483B0BF
:1021F00000AF786039603B684FF400525A600023AA
:1022000018460C37BD4680BC704780B483B000AF21
:102210007860012318460C37BD4680BC704780B4F7
:1022200085B000AFF860B9607A60002318461437B3
:10223000BD4680BC7047000080B586B000AF7860B6
:10224000144A154BD31A7B617B693B61134B1B68A6
:10225000002B02D1114B124A1A60104B1A687B688E
:1022600013443A699A4207D204F05AF803460C2202
:102270001A604FF0FF3309E0084B1B68FB60074B07
:102280001A687B681344054A1360FB6818461837C0
:10229000BD4680BD005000200004000088050020DD
:1022A000E006002080B400AF00BFBD4680BC704790
:1022B000FFF7F8FF0B480C490C4A002302E0D45802
:1022C000C4500433C4188C42F9D3094A094C002382
:1022D00001E013600432A242FBD304F027F8FEF7BA
:1022E0000DFF704700000020DC010020748F000803
:1022F000DC010020DC060020FEE7000080B500AF16
:10230000084B1B68074A43F010031360032000F0DA
:1023100047F90F2000F008F8FFF75EFD002318468C
:1023200080BD00BF0020024080B582B000AF786061
:10233000124B1A68124B1B7819464FF47A73B3FB91
:10234000F1F3B2FBF3F3184600F05FF90346002BFC
:1023500001D001230EE07B680F2B0AD80022796898
:102360004FF0FF3000F027F9064A7B681360002326
:1023700000E0012318460837BD4680BD0800002054
:10238000100000200C00002080B400AF054B1B782B
:102390001A46054B1B681344034A136000BFBD4631
:1023A00080BC7047100000208C05002080B400AF76
:1023B000024B1B681846BD4680BC70478C05002048
:1023C00080B584B000AF7860FFF7F0FFB8607B683D
:1023D000FB60FB68B3F1FF3F05D00A4B1B781A4640
:1023E000FB681344FB6000BFFFF7E0FF0246BB68D9
:1023F000D31AFA689A42F7D800BF00BF1037BD461B
:1024000080BD00BF1000002080B485B000AF7860B0
:102410007B6803F00703FB600C4BDB68BB60BA68AA
:102420004FF6FF031340BB60FB681A02BB681343FF
:1024300043F0BF6343F40033BB60044ABB68D3601E
:1024400000BF1437BD4680BC704700BF00ED00E000
:1024500080B400AF044BDB681B0A03F00703184687
:10246000BD4680BC704700BF00ED00E080B483B083
:1024700000AF0346FB7197F90730002B0BDBFB79AC
:1024800003F01F02064997F907305B09012000FAA3
:1024900002F241F8232000BF0C37BD4680BC7047D4
:1024A00000E100E080B483B000AF03463960FB7107
:1024B00097F90730002B0ADB3B68DAB20C4997F931
:1024C00007301201D2B20B4483F800230AE03B68C4
:1024D000DAB20849FB7903F00F03043B1201D2B2D0
:1024E0000B441A7600BF0C37BD4680BC704700BF56
:1024F00000E100E000ED00E080B489B000AFF860DA
:10250000B9607A60FB6803F00703FB61FB69C3F104
:102510000703042B28BF0423BB61FB690433062B8C
:1025200002D9FB69033B00E000237B614FF0FF32DF
:10253000BB6902FA03F3DA43BB681A407B699A402D
:102540004FF0FF317B6901FA03F3D9437B680B40FD
:10255000134318462437BD4680BC704780B582B00F
:1025600000AF78607B68013BB3F1807F01D301232A
:102570000FE00A4A7B68013B53600F214FF0FF30A8
:10258000FFF790FF054B00229A60044B07221A6068
:10259000002318460837BD4680BD00BF10E000E0AC
:1025A00080B582B000AF78607868FFF72DFF00BF7C
:1025B0000837BD4680BD80B586B000AF0346B96020
:1025C0007A60FB7300237B61FFF742FF78617A68D2
:1025D000B9687869FFF790FF024697F90F30114606
:1025E0001846FFF75FFF00BF1837BD4680BD80B5B6
:1025F00082B000AF0346FB7197F907301846FFF72A
:1026000035FF00BF0837BD4680BD80B582B000AF42
:1026100078607868FFF7A2FF034618460837BD4682
:1026200080BD80B485B000AF78600023FB737B6809
:1026300093F82130DBB2022B08D07B6804229A6326
:102640007B68002283F82020012320E07B681B6840
:102650001A687B681B6822F00E021A607B681B6890
:102660001A687B681B6822F001021A607B681A6C8A
:102670007B68DB6B012101FA02F25A607B68012260
:1026800083F821207B68002283F82020FB7B1846FA
:102690001437BD4680BC704780B584B000AF786009
:1026A0000023FB737B6893F82130DBB2022B05D04B
:1026B0007B6804229A630123FB7351E07B681B68EB
:1026C0001A687B681B6822F00E021A607B681B6820
:1026D0001A687B681B6822F001021A607B681B681D
:1026E000224A934229D07B681B68214A934222D018
:1026F0007B681B681F4A93421AD07B681B681E4A7E
:10270000934212D07B681B681C4A93420AD07B68B4
:102710001B681B4A934202D14FF480130EE04FF026
:1027200080730BE04FF4803308E04FF4805305E0F2
:102730004FF4807302E0102300E00123114A53603C
:102740007B68012283F821207B68002283F8202007
:102750007B685B6B002B03D07B685B6B786898476A
:10276000FB7B18461037BD4680BD00BF0800024005
:102770001C00024030000240440002405800024069
:102780006C0002400000024080B48BB000AF786063
:10279000396000237B6200233B6269E101227B6A8E
:1027A00002FA03F3FB613B681B68FA691340BB61E3
:1027B000BA69FB699A4240F058813B685B689A4A63
:1027C00093425ED0984A934275D8984A934258D023
:1027D000964A93426FD8964A934252D0944A934273
:1027E00069D8944A93424CD0924A934263D8924A11
:1027F000934246D0904A93425DD8122B2AD8122B8E
:1028000059D801A252F823F0832800085D28000857
:102810006F280008B1280008B7280008B72800086A
:10282000B7280008B7280008B7280008B72800080C
:10283000B7280008B7280008B7280008B7280008FC
:10284000B7280008B7280008B7280008652800083E
:1028500079280008794A934213D02CE03B68DB6862
:102860003B6229E03B68DB6804333B6224E03B6861
:10287000DB6808333B621FE03B68DB680C333B627C
:102880001AE03B689B68002B02D104233B6213E0F3
:102890003B689B68012B05D108233B627B68FA6982
:1028A0001A6109E008233B627B68FA695A6103E018
:1028B00000233B6200E000BFBB69FF2B01D87B68AF
:1028C00001E07B6804337B61BB69FF2B02D87B6A24
:1028D0009B0002E07B6A083B9B003B617B691A68B6
:1028E0000F213B6901FA03F3DB431A40396A3B6964
:1028F00001FA03F31A437B691A603B685B6803F0D3
:102900008053002B00F0B1804D4B9B694C4A43F043
:10291000010393614A4B9B6903F00103BB60BB68F1
:10292000484A7B6A9B08023352F82330FB607B6A7B
:1029300003F003039B000F2202FA03F3DB43FA6860
:102940001340FB607B68404A934213D07B683F4A48
:1029500093420DD07B683E4A934207D07B683D4A44
:10296000934201D1032306E0042304E0022302E0A2
:10297000012300E000237A6A02F0030292009340F0
:10298000FA681343FB602F497B6A9B080233FA689D
:1029900041F823203B685B6803F48013002B06D0CA
:1029A0002D4B9A682C49BB6913438B6006E02A4B78
:1029B0009A68BB69DB43284913408B603B685B68BE
:1029C00003F40013002B06D0234BDA682249BB69BD
:1029D0001343CB6006E0204BDA68BB69DB431E493A
:1029E0001340CB603B685B6803F40033002B06D0D8
:1029F000194B5A681849BB6913434B6006E0164BE4
:102A00005A68BB69DB43144913404B603B685B6801
:102A100003F48033002B21D00F4B1A680E49BB6999
:102A200013430B6021E000BF0000321000003110A2
:102A300000002210000021100000121000001110F0
:102A4000001002400000014000080140000C01405D
:102A50000010014000140140000401400B4B1A68B3
:102A6000BB69DB43094913400B607B6A01337B621E
:102A70003B681A687B6A22FA03F3002B7FF48EAE60
:102A800000BF00BF2C37BD4680BC7047000401402A
:102A900080B483B000AF78600B467B8013467B70B8
:102AA0007B78002B03D07A887B681A6103E07B88EF
:102AB0001A047B681A6100BF0C37BD4680BC7047A2
:102AC00080B485B000AF78600B467B807B68DB68A4
:102AD000FB607A88FB6813401A04FB68D9437B8843
:102AE0000B401A437B681A6100BF1437BD4680BC97
:102AF0007047000080B582B000AF0346FB80084BF2
:102B00005A69FB881340002B06D0054AFB885361A5
:102B1000FB881846FEF776FE00BF0837BD4680BD2D
:102B20000004014080B584B000AF78607B68002B62
:102B300001D101232BE17B6893F83D30DBB2002B00
:102B400006D17B68002283F83C207868FFF776F98D
:102B50007B68242283F83D207B681B681A687B68A9
:102B60001B6822F001021A607B681B681A687B6888
:102B70001B6842F400421A607B681B681A687B6815
:102B80001B6822F400421A6001F060F9F8607B686B
:102B90005B68814A934207D8FB68804A934294BF9E
:102BA00001230023DBB206E0FB687D4A934294BF19
:102BB00001230023DBB2002B01D00123E7E0FB68F7
:102BC000784AA2FB03239B0CBB607B681B685B6895
:102BD00023F03F017B681B68BA680A435A607B6830
:102BE0001B681B6A23F03F017B685B686A4A93425B
:102BF00002D8BB68013309E0BB684FF4967202FB50
:102C000003F3694AA2FB03239B0901337A68126824
:102C10000B4313627B681B68DB6923F44F4222F08D
:102C2000FF027B685B685C498B4219D8FB68591EC0
:102C30007B685B685B00B1FBF3F3591C40F6FC73E7
:102C40000B40002B0AD0FB68591E7B685B685B0059
:102C5000B1FBF3F30133C3F30B0351E004234FE063
:102C60007B689B68002B11D1FB68581E7B685968F4
:102C70000B465B000B44B0FBF3F30133C3F30B03D0
:102C8000002B0CBF01230023DBB212E0FB68581EAF
:102C90007B6859680B469B000B4499000B44B0FBC2
:102CA000F3F30133C3F30B03002B0CBF0123002309
:102CB000DBB2002B01D0012322E07B689B68002B54
:102CC0000ED1FB68581E7B6859680B465B000B44AD
:102CD000B0FBF3F30133C3F30B0343F400430FE002
:102CE000FB68581E7B6859680B469B000B44990093
:102CF0000B44B0FBF3F30133C3F30B0343F4404342
:102D0000796809681343CB617B681B681B6823F0F3
:102D1000C0017B68DA697B681B6A1A437B681B68A1
:102D20000A431A607B681B689B6823F4034323F003
:102D3000FF037A6811697A68D26811437A68126869
:102D40000B4393607B681B68DB6823F0FF017B68A3
:102D50005A697B689B691A437B681B680A43DA607F
:102D60007B681B681A687B681B6842F001021A6066
:102D70007B6800221A647B68202283F83D207B68F0
:102D800000221A637B68002283F83E200023184645
:102D90001037BD4680BD00BFA08601007F841E00A5
:102DA000FF083D0083DE1B43D34D621080B588B021
:102DB00002AFF8607A601A460B467B8113463B816E
:102DC000FFF7F4FA7861FB6893F83D30DBB2202B13
:102DD00040F0E0807B690093192301227049F86874
:102DE00000F092FA0346002B01D00223D3E0FB68E7
:102DF00093F83C30012B01D10223CCE0FB68012287
:102E000083F83C20FB681B681B6803F00103012B5F
:102E100007D0FB681B681A68FB681B6842F0010258
:102E20001A60FB681B681A68FB681B6822F4006262
:102E30001A60FB68212283F83D20FB68102283F88A
:102E40003E20FB6800221A64FB687A685A62FB68BD
:102E50003A895A85FB685B8D9AB2FB681A85FB68D4
:102E6000504ADA6279897B693A6AF86800F0CAF9EF
:102E70000346002B01D001238DE000233B61FB685A
:102E80001B685B693B61FB681B689B693B613B6935
:102E900066E07A69396AF86800F050FB0346002B57
:102EA0000DD0FB681B6C042B07D1FB681B681A68EC
:102EB000FB681B6842F400721A6001236BE0FB6838
:102EC0005B6A1A78FB681B681A61FB685B6A5A1CAC
:102ED000FB685A62FB685B8D9BB2013B9AB2FB6850
:102EE0005A85FB681B8D013B9AB2FB681A85FB680B
:102EF0001B685B6903F00403042B1BD1FB681B8D6B
:102F0000002B17D0FB685B6A1A78FB681B681A6194
:102F1000FB685B6A5A1CFB685A62FB685B8D9BB25C
:102F2000013B9AB2FB685A85FB681B8D013B9AB244
:102F3000FB681A857A69396AF86800F047FB03462E
:102F4000002B0DD0FB681B6C042B07D1FB681B68A2
:102F50001A68FB681B6842F400721A6001231AE0C9
:102F6000FB681B8D002B94D1FB681B681A68FB68FB
:102F70001B6842F400721A60FB68202283F83D202F
:102F8000FB68002283F83E20FB68002283F83C2087
:102F9000002300E0022318461837BD4680BD00BF5D
:102FA000020010000000FFFF80B58AB002AFF86099
:102FB0007A603B600B467B81FFF7F8F9F8610023EC
:102FC000BB61FB6893F83D30DBB2202B40F01181F0
:102FD000FB690093192301228849F86800F094F9ED
:102FE0000346002B01D0022304E1FB6893F83C3038
:102FF000012B01D10223FDE0FB68012283F83C2074
:10300000FB681B681B6803F00103012B07D0FB68FA
:103010001B681A68FB681B6842F001021A60FB68B3
:103020001B681A68FB681B6822F400621A60FB6860
:10303000242283F83D20FB6800221A64FB68704A52
:10304000DA62FB681B681A68FB681B6842F48072CE
:103050001A60FB6900933B6800224FF00111F86889
:1030600000F052F90346002B0DD0FB681B681B686B
:1030700003F48073B3F5807F03D1FB684FF40072D3
:103080001A640323B6E07B89DBB21A46FB681B682F
:1030900002F0FE021A61FFF789F9F861FB681B680C
:1030A0005B6903F00203022B0CBF01230023DBB298
:1030B000FB75FB681B685B6903F48063B3F5806F85
:1030C0000CBF01230023DBB2BB7525E0FFF76EF9CF
:1030D0000246FB69D31A3A689A4202D33B68002B36
:1030E00003D1FB68A02283F83D20FB681B685B6965
:1030F00003F00203022B0CBF01230023DBB2FB759C
:10310000FB681B685B6903F48063B3F5806F0CBFD9
:1031100001230023DBB2BB75FB6893F83D30DBB2C3
:10312000A02B05D0FB7D002B02D1BB7D002BCDD089
:10313000FB68202283F83D20FB681B685B6903F075
:103140000203022B29D1FB681B681A68FB681B6805
:1031500042F400721A6000233B61FB681B685B69E4
:103160003B61FB681B689B693B613B69FB690093A2
:10317000192301222149F86800F0C6F80346002B04
:1031800001D0012336E0FB68202283F83D20FB6854
:10319000002283F83C2000232CE0FB681B681A689F
:1031A000FB681B6842F400721A60FB681B686FF4CE
:1031B00080625A61FB690093192301220F49F86864
:1031C00000F0A2F80346002B01D0012312E0BB69F6
:1031D0000133BB61BA697B689A42FFF432AFFB6886
:1031E000202283F83D20FB68002283F83C20012345
:1031F00000E0022318462037BD4680BD02001000C3
:103200000000FFFF80B588B002AFF8607A603B60D5
:103210000B467B81FB68DB6A7B617B69082B06D0F0
:103220007B69012B03D07B6913F5803F08D1FB68D4
:103230001B681A68FB681B6842F480721A600BE016
:10324000FB681B6B122B07D1FB681B681A68FB68B5
:103250001B6842F480721A603B6800937B6800220E
:103260004FF00111F86800F04FF80346002B0DD025
:10327000FB681B681B6803F48073B3F5807F03D180
:10328000FB684FF400721A64032335E0FB681B6986
:10329000B3F5804F08D17B89DBB21A46FB681B6807
:1032A00002F0FE021A611BE07B89DB11DBB203F046
:1032B0000603DBB263F00F03DAB2FB681B681A6126
:1032C0003B687A680E49F86800F098F80346002BCE
:1032D00001D0012310E07B89DAB2FB681B681A6118
:1032E0003B687A680749F86800F088F80346002BC5
:1032F00001D0012300E0002318461837BD4680BDE9
:10330000080001000200010080B584B000AFF86041
:10331000B9603B601346FB7148E03B68B3F1FF3F87
:1033200044D0FFF743F80246BB69D31A3A689A4281
:1033300002D33B68002B39D1BB681B0CDBB2012BDD
:103340000DD1FB681B685B69DA43BB6813409BB215
:10335000002B0CBF01230023DBB21A460CE0FB68F4
:103360001B689B69DA43BB6813409BB2002B0CBF00
:1033700001230023DBB21A46FB799A4216D1FB687F
:1033800000221A63FB68202283F83D20FB6800229C
:1033900083F83E20FB681B6C43F02002FB681A6434
:1033A000FB68002283F83C20012323E0BB681B0C50
:1033B000DBB2012B0DD1FB681B685B69DA43BB688C
:1033C00013409BB2002B0CBF01230023DBB21A4633
:1033D0000CE0FB681B689B69DA43BB6813409BB237
:1033E000002B0CBF01230023DBB21A46FB799A4263
:1033F00093D0002318461037BD4680BD80B584B0F9
:1034000000AFF860B9607A603B6071E0FB681B68F0
:103410005B6903F48063B3F5806F23D1FB681B689D
:103420001A68FB681B6842F400721A60FB681B682C
:103430006FF480625A61FB6800221A63FB682022E5
:1034400083F83D20FB68002283F83E20FB681B6C5C
:1034500043F00402FB681A64FB68002283F83C20F6
:10346000012367E07B68B3F1FF3F41D0FEF79EFF89
:1034700002463B68D31A7A689A4202D37B68002BD3
:1034800036D1BB681B0CDBB2012B0CD1FB681B686F
:103490005B69DA43BB6813409BB2002B14BF012366
:1034A0000023DBB20BE0FB681B689B69DA43BB6857
:1034B00013409BB2002B14BF01230023DBB2002B6F
:1034C00016D0FB6800221A63FB68202283F83D2097
:1034D000FB68002283F83E20FB681B6C43F020024F
:1034E000FB681A64FB68002283F83C20012321E07A
:1034F000BB681B0CDBB2012B0CD1FB681B685B6942
:10350000DA43BB6813409BB2002B14BF0123002396
:10351000DBB20BE0FB681B689B69DA43BB681340B6
:103520009BB2002B14BF01230023DBB2002B7FF4DE
:103530006DAF002318461037BD4680BD80B584B0FE
:1035400000AFF860B9607A6034E0F86800F086F89F
:103550000346002B01D0012334E0BB68B3F1FF3FE9
:1035600028D0FEF723FF02467B68D31ABA689A4236
:1035700002D3BB68002B1DD1FB681B685B6903F09D
:103580008003802B16D0FB6800221A63FB68202280
:1035900083F83D20FB68002283F83E20FB681B6C0B
:1035A00043F02002FB681A64FB68002283F83C2089
:1035B000012307E0FB681B685B6903F08003802B35
:1035C000C3D1002318461037BD4680BD80B584B0F6
:1035D00000AFF860B9607A6034E0F86800F03EF857
:1035E0000346002B01D0012334E0BB68B3F1FF3F59
:1035F00028D0FEF7DBFE02467B68D31ABA689A42EF
:1036000002D3BB68002B1DD1FB681B685B6903F00C
:103610000403042B16D0FB6800221A63FB682022E7
:1036200083F83D20FB68002283F83E20FB681B6C7A
:1036300043F02002FB681A64FB68002283F83C20F8
:10364000012307E0FB681B685B6903F00403042B9C
:10365000C3D1002318461037BD4680BD80B483B067
:1036600000AF78607B681B685B6903F48063B3F527
:10367000806F1BD17B681B686FF480625A617B6826
:1036800000221A637B68202283F83D207B68002299
:1036900083F83E207B681B6C43F004027B681A644D
:1036A0007B68002283F83C20012300E000231846B9
:1036B0000C37BD4680BC704780B586B000AF7860DF
:1036C0007B68002B01D1012372E27B681B6803F049
:1036D0000103002B00F08780924B5B6803F00C0322
:1036E000042B0CD08F4B5B6803F00C03082B12D11A
:1036F0008C4B5B6803F48033B3F5803F0BD1894B6F
:103700001B6803F40033002B6CD07B685B68002BD4
:1037100068D101234CE27B685B68B3F5803F06D13A
:10372000804B1B687F4A43F4803313602EE07B6834
:103730005B68002B0CD17B4B1B687A4A23F48033E7
:103740001360784B1B68774A23F4802313601DE0D5
:103750007B685B68B3F5A02F0CD1724B1B68714A74
:1037600043F4802313606F4B1B686E4A43F480332D
:1037700013600BE06B4B1B686A4A23F480331360C1
:10378000684B1B68674A23F4802313607B685B687F
:10379000002B13D0FEF70AFE386108E0FEF706FEA4
:1037A00002463B69D31A642B01D9032300E25D4B27
:1037B0001B6803F40033002BF0D014E0FEF7F6FD95
:1037C000386108E0FEF7F2FD02463B69D31A642B2C
:1037D00001D90323ECE1534B1B6803F40033002BA6
:1037E000F0D100E000BF7B681B6803F00203002BF0
:1037F00063D04C4B5B6803F00C03002B0BD0494BA0
:103800005B6803F00C03082B1CD1464B5B6803F488
:103810008033002B16D1434B1B6803F00203002BAF
:1038200005D07B681B69012B01D00123C0E13D4B12
:103830001B6823F0F8027B685B69DB00394913439E
:103840000B603AE07B681B69002B20D0364B0122CD
:103850001A60FEF7ABFD386108E0FEF7A7FD0246EF
:103860003B69D31A022B01D90323A1E12D4B1B681D
:1038700003F00203002BF0D02A4B1B6823F0F80260
:103880007B685B69DB00274913430B6015E0264B1F
:1038900000221A60FEF78AFD386108E0FEF786FD17
:1038A00002463B69D31A022B01D9032380E11D4B49
:1038B0001B6803F00203002BF0D17B681B6803F048
:1038C0000803002B3AD07B689B69002B19D0174B5B
:1038D00001221A60FEF76AFD386108E0FEF766FD16
:1038E00002463B69D31A022B01D9032360E10D4B39
:1038F0005B6A03F00203002BF0D0012000F0CEFA47
:103900001CE00A4B00221A60FEF750FD38610FE000
:10391000FEF74CFD02463B69D31A022B08D903235C
:1039200046E100BF001002400000424280044242D3
:10393000924B5B6A03F00203002BE9D17B681B68A2
:1039400003F00403002B00F0A6800023FB758B4BD3
:10395000DB6903F08053002B0DD1884BDB69874A6C
:1039600043F08053D361854BDB6903F08053BB6028
:10397000BB680123FB75824B1B6803F48073002B2B
:1039800018D17F4B1B687E4A43F480731360FEF7A7
:103990000DFD386108E0FEF709FD02463B69D31AC8
:1039A000642B01D9032303E1754B1B6803F4807377
:1039B000002BF0D07B68DB68012B06D16F4B1B6AB4
:1039C0006E4A43F0010313622DE07B68DB68002B35
:1039D0000CD16A4B1B6A694A23F001031362674BDF
:1039E0001B6A664A23F0040313621CE07B68DB68F1
:1039F000052B0CD1614B1B6A604A43F00403136230
:103A00005E4B1B6A5D4A43F0010313620BE05B4BA4
:103A10001B6A5A4A23F001031362584B1B6A574A28
:103A200023F0040313627B68DB68002B15D0FEF7DC
:103A3000BDFC38610AE0FEF7B9FC02463B69D31AC7
:103A400041F28832934201D90323B1E04B4B1B6A08
:103A500003F00203002BEED014E0FEF7A7FC386160
:103A60000AE0FEF7A3FC02463B69D31A41F2883212
:103A7000934201D903239BE0404B1B6A03F00203EE
:103A8000002BEED1FB7D012B05D13C4BDB693B4A82
:103A900023F08053D3617B68DB69002B00F08780C3
:103AA000364B5B6803F00C03082B61D07B68DB6945
:103AB000022B46D1334B00221A60FEF777FC3861A7
:103AC00008E0FEF773FC02463B69D31A022B01D9CA
:103AD00003236DE0294B1B6803F00073002BF0D12A
:103AE0007B681B6AB3F5803F08D1244B5B6823F4E5
:103AF00000327B689B68214913434B601F4B5B6816
:103B000023F474127B68196A7B685B6A0B431B4958
:103B100013434B601B4B01221A60FEF747FC3861D0
:103B200008E0FEF743FC02463B69D31A022B01D999
:103B300003233DE0114B1B6803F00073002BF0D012
:103B400035E0104B00221A60FEF730FC386108E0C7
:103B5000FEF72CFC02463B69D31A022B01D9032342
:103B600026E0064B1B6803F00073002BF0D11EE02B
:103B70007B68DB69012B07D1012319E000100240AB
:103B800000700040600042420B4B5B68FB60FB68CA
:103B900003F480327B681B6A9A4206D1FB6803F407
:103BA00070127B685B6A9A4201D0012300E0002317
:103BB00018461837BD4680BD0010024080B584B05D
:103BC00000AF786039607B68002B01D10123D0E021
:103BD0006A4B1B6803F007033A689A4210D9674B97
:103BE0001B6823F0070265493B6813430B60634B76
:103BF0001B6803F007033A689A4201D00123B8E03A
:103C00007B681B6803F00203002B20D07B681B68D5
:103C100003F00403002B05D0594B5B68584A43F46A
:103C2000E06353607B681B6803F00803002B05D03A
:103C3000534B5B68524A43F460535360504B5B688C
:103C400023F0F0027B689B684D4913434B607B680F
:103C50001B6803F00103002B40D07B685B68012BDD
:103C600007D1474B1B6803F40033002B15D1012308
:103C70007FE07B685B68022B07D1414B1B6803F038
:103C80000073002B09D1012373E03D4B1B6803F047
:103C90000203002B01D101236BE0394B5B6823F059
:103CA00003027B685B68364913434B60FEF77EFB7B
:103CB000F8600AE0FEF77AFB0246FB68D31A41F28D
:103CC0008832934201D9032353E02D4B5B6803F004
:103CD0000C027B685B689B009A42EBD1274B1B6808
:103CE00003F007033A689A4210D2244B1B6823F072
:103CF000070222493B6813430B60204B1B6803F00B
:103D000007033A689A4201D0012332E07B681B68BE
:103D100003F00403002B08D0194B5B6823F4E06226
:103D20007B68DB68164913434B607B681B6803F0B4
:103D30000803002B09D0124B5B6823F460527B68A8
:103D40001B69DB000E4913434B6000F021F802466B
:103D50000B4B5B681B0903F00F030A49CB5C22FA8B
:103D600003F3094A1360094B1B681846FEF7DCFA97
:103D7000002318461037BD4680BD00BF002002401A
:103D800000100240C48B0008080000200C00002036
:103D900080B487B000AF0023FB600023BB6000232A
:103DA0007B6100237B6000233B611E4B5B68FB60F3
:103DB000FB6803F00C03042B02D0082B03D027E090
:103DC000194B3B6127E0FB689B0C03F00F03174A7C
:103DD000D35C7B60FB6803F48033002B10D0114B65
:103DE0005B685B0C03F00103114AD35CBB607B682A
:103DF0000D4A03FB02F2BB68B2FBF3F37B6104E004
:103E00007B680C4A02FB03F37B617B693B6102E048
:103E1000054B3B6100BF3B6918461C37BD4680BC63
:103E2000704700BF0010024000127A00DC8B0008CF
:103E3000EC8B000800093D0080B400AF024B1B680A
:103E40001846BD4680BC70470800002080B500AF12
:103E5000FFF7F2FF0246054B5B681B0A03F00703FE
:103E60000349CB5C22FA03F3184680BD00100240E0
:103E7000D48B000880B500AFFFF7DEFF0246054B8C
:103E80005B68DB0A03F007030349CB5C22FA03F308
:103E9000184680BD00100240D48B000880B485B065
:103EA00000AF78600A4B1B680A4AA2FB03235B0A37
:103EB0007A6802FB03F3FB6000BFFB685A1EFA60DE
:103EC000002BF9D100BF00BF1437BD4680BC70473E
:103ED00008000020D34D621080B582B000AF78603A
:103EE0007B68002B01D1012341E07B6893F83D30D2
:103EF000DBB2002B06D17B68002283F83C20786877
:103F0000FDF7DAFF7B68022283F83D207B681A68A0
:103F10007B6804331946104600F0B2FA7B68012230
:103F200083F846207B68012283F83E207B680122CB
:103F300083F83F207B68012283F840207B680122C0
:103F400083F841207B68012283F842207B680122AC
:103F500083F843207B68012283F844207B68012298
:103F600083F845207B68012283F83D200023184612
:103F70000837BD4680BD80B582B000AF78607B68F1
:103F8000002B01D1012341E07B6893F83D30DBB287
:103F9000002B06D17B68002283F83C20786800F073
:103FA00039F87B68022283F83D207B681A687B68B9
:103FB00004331946104600F063FA7B68012283F847
:103FC00046207B68012283F83E207B68012283F82B
:103FD0003F207B68012283F840207B68012283F820
:103FE00041207B68012283F842207B68012283F80C
:103FF00043207B68012283F844207B68012283F8F8
:1040000045207B68012283F83D20002318460837AD
:10401000BD4680BD80B483B000AF786000BF0C3770
:10402000BD4680BC7047000080B584B000AF7860AA
:1040300039603B68002B09D17B6893F83E30DBB2D6
:10404000012B14BF01230023DBB222E03B68042BC9
:1040500009D17B6893F83F30DBB2012B14BF0123F9
:104060000023DBB215E03B68082B09D17B6893F88D
:104070004030DBB2012B14BF01230023DBB208E088
:104080007B6893F84130DBB2012B14BF012300237E
:10409000DBB2002B01D001235EE03B68002B04D192
:1040A0007B68022283F83E2013E03B68042B04D196
:1040B0007B68022283F83F200BE03B68082B04D189
:1040C0007B68022283F8402003E07B68022283F8A9
:1040D00041207B681B6801223968184600F050FCBB
:1040E0007B681B681E4A934207D17B681B685A6C29
:1040F0007B681B6842F400425A647B681B68184A5C
:1041000093420ED07B681B68B3F1804F09D07B6867
:104110001B68144A934204D07B681B68124A93427E
:1041200011D17B681B689B6803F00703FB60FB6889
:10413000062B10D07B681B681A687B681B6842F0EE
:1041400001021A6007E07B681B681A687B681B68BD
:1041500042F001021A60002318461037BD4680BDA8
:10416000002C0140000400400008004080B586B0EB
:1041700000AFF860B9607A600023FB75FB6893F8C4
:104180003C30012B01D10223AEE0FB68012283F811
:104190003C207B680C2B00F29F8001A252F823F098
:1041A000D5410008D9420008D9420008D942000888
:1041B00015420008D9420008D9420008D942000837
:1041C00057420008D9420008D9420008D9420008E5
:1041D00097420008FB681B68B968184600F0B2F9FE
:1041E000FB681B689A69FB681B6842F008029A61C9
:1041F000FB681B689A69FB681B6822F004029A61DD
:10420000FB681B689969BB681A69FB681B680A43ED
:104210009A6164E0FB681B68B968184600F0F8F919
:10422000FB681B689A69FB681B6842F400629A612C
:10423000FB681B689A69FB681B6822F480629A61BC
:10424000FB681B689969BB681B691A02FB681B68DD
:104250000A439A6143E0FB681B68B968184600F09E
:1042600041FAFB681B68DA69FB681B6842F00802C8
:10427000DA61FB681B68DA69FB681B6822F00402DC
:10428000DA61FB681B68D969BB681A69FB681B683F
:104290000A43DA6123E0FB681B68B968184600F03E
:1042A0008BFAFB681B68DA69FB681B6842F40062E2
:1042B000DA61FB681B68DA69FB681B6822F48062BC
:1042C000DA61FB681B68D969BB681B691A02FB6865
:1042D0001B680A43DA6102E00123FB7500BFFB683B
:1042E000002283F83C20FB7D18461837BD4680BD70
:1042F00080B584B000AF786039600023FB737B68C1
:1043000093F83C30012B01D10223B4E07B680122F9
:1043100083F83C207B68022283F83D207B681B6881
:104320009B68BB60BB6823F07703BB60BB6823F46A
:104330007F43BB607B681B68BA689A603B681B68F8
:10434000B3F5005F3ED0B3F5005F00F28780B3F5B0
:10435000805F00F08680B3F5805F7FD8702B1AD025
:10436000702B7BD8602B50D0602B77D8502B3CD053
:10437000502B73D8402B58D0402B6FD8302B64D0A3
:10438000302B6BD8202B60D0202B67D8002B5CD033
:10439000102B5AD062E07B6818683B6899683B68CC
:1043A0005A683B68DB6800F0CCFA7B681B689B6846
:1043B000BB60BB6843F07703BB607B681B68BA686F
:1043C0009A604FE07B6818683B6899683B685A6858
:1043D0003B68DB6800F0B5FA7B681B689A687B680D
:1043E0001B6842F480429A603CE07B6818683B6836
:1043F00059683B68DB681A4600F02CFA7B681B683A
:104400005021184600F083FA2CE07B6818683B685E
:1044100059683B68DB681A4600F04AFA7B681B68FB
:104420006021184600F073FA1CE07B6818683B684E
:1044300059683B68DB681A4600F00CFA7B681B6819
:104440004021184600F063FA0CE07B681A683B686C
:104450001B681946104600F05AFA03E00123FB736B
:1044600000E000BF7B68012283F83D207B680022CA
:1044700083F83C20FB7B18461037BD4680BD00000A
:1044800080B485B000AF786039607B681B68FB60E2
:104490007B68294A93420BD07B68B3F1804F07D0E9
:1044A0007B68264A934203D07B68254A934208D111
:1044B000FB6823F07003FB603B685B68FA6813439A
:1044C000FB607B681C4A93420BD07B68B3F1804F42
:1044D00007D07B68194A934203D07B68184A9342FD
:1044E00008D1FB6823F44073FB603B68DB68FA6823
:1044F0001343FB60FB6823F080023B685B69134356
:10450000FB607B68FA681A603B689A687B68DA62CD
:104510003B681A687B689A627B68074A934203D1BA
:104520003B681A697B681A637B6801225A6100BF85
:104530001437BD4680BC7047002C01400004004089
:104540000008004080B487B000AF786039607B68B5
:104550001B6A7B617B681B6A23F001027B681A621D
:104560007B685B683B617B689B69FB60FB6823F051
:104570007003FB60FB6823F00303FB603B681B6870
:10458000FA681343FB607B6923F002037B613B689D
:104590009B687A6913437B617B681C4A93420CD108
:1045A0007B6923F008037B613B68DB687A6913430E
:1045B0007B617B6923F004037B617B68134A934230
:1045C00011D13B6923F480733B613B6923F4007391
:1045D0003B613B685B693A6913433B613B689B699C
:1045E0003A6913433B617B683A695A607B68FA68B1
:1045F0009A613B685A687B685A637B687A691A6279
:1046000000BF1C37BD4680BC704700BF002C014076
:1046100080B487B000AF786039607B681B6A7B61CB
:104620007B681B6A23F010027B681A627B685B68F8
:104630003B617B689B69FB60FB6823F4E043FB60A4
:10464000FB6823F44073FB603B681B681B02FA683D
:104650001343FB607B6923F020037B613B689B680D
:104660001B017A6913437B617B681D4A93420DD11C
:104670007B6923F080037B613B68DB681B017A69FF
:1046800013437B617B6923F040037B617B68144AA1
:10469000934213D13B6923F480633B613B6923F46C
:1046A00000633B613B685B699B003A6913433B6174
:1046B0003B689B699B003A6913433B617B683A699D
:1046C0005A607B68FA689A613B685A687B689A63AB
:1046D0007B687A691A6200BF1C37BD4680BC704790
:1046E000002C014080B487B000AF786039607B68EF
:1046F0001B6A7B617B681B6A23F480727B681A6289
:104700007B685B683B617B68DB69FB60FB6823F06F
:104710007003FB60FB6823F00303FB603B681B68CE
:10472000FA681343FB607B6923F400737B613B6889
:104730009B681B027A6913437B617B681D4A934225
:104740000DD17B6923F400637B613B68DB681B024E
:104750007A6913437B617B6923F480637B617B68A7
:10476000144A934213D13B6923F480533B613B6964
:1047700023F400533B613B685B691B013A691343B7
:104780003B613B689B691B013A6913433B617B6852
:104790003A695A607B68FA68DA613B685A687B68F4
:1047A000DA637B687A691A6200BF1C37BD4680BC39
:1047B000704700BF002C014080B487B000AF786024
:1047C00039607B681B6A3B617B681B6A23F48052FB
:1047D0007B681A627B685B687B617B68DB69FB6076
:1047E000FB6823F4E043FB60FB6823F44073FB6049
:1047F0003B681B681B02FA681343FB603B6923F4A8
:1048000000533B613B689B681B033A6913433B6160
:104810007B680F4A934209D17B6923F480437B6113
:104820003B685B699B017A6913437B617B687A69AA
:104830005A607B68FA68DA613B685A687B681A6478
:104840007B683A691A6200BF1C37BD4680BC70475E
:10485000002C014080B487B000AFF860B9607A6086
:10486000FB681B6A7B61FB681B6A23F00102FB6823
:104870001A62FB689B693B613B6923F0F0033B6173
:104880007B681B013A6913433B617B6923F00A0390
:104890007B617A69BB6813437B61FB683A699A6103
:1048A000FB687A691A6200BF1C37BD4680BC70473E
:1048B00080B487B000AFF860B9607A60FB681B6AAB
:1048C0007B61FB681B6A23F01002FB681A62FB68BD
:1048D0009B693B613B6923F470433B617B681B032D
:1048E0003A6913433B617B6923F0A0037B61BB689A
:1048F0001B017A6913437B61FB683A699A61FB6823
:104900007A691A6200BF1C37BD4680BC704780B40C
:1049100085B000AF786039607B689B68FB60FB689E
:1049200023F07003FB603A68FB68134343F007030E
:10493000FB607B68FA689A6000BF1437BD4680BC94
:10494000704780B487B000AFF860B9607A603B60B0
:10495000FB689B687B617B6923F47F437B613B68D9
:104960001A027B681A43BB6813437A6913437B615D
:10497000FB687A699A6000BF1C37BD4680BC7047EF
:1049800080B487B000AFF860B9607A60BB6803F0AC
:104990001F03012202FA03F37B61FB681A6A7B6939
:1049A000DB431A40FB681A62FB681A6ABB6803F0B3
:1049B0001F03796801FA03F31A43FB681A6200BF08
:1049C0001C37BD4680BC704780B485B000AF7860AE
:1049D00039607B6893F83C30012B01D1022346E01B
:1049E0007B68012283F83C207B68022283F83D200B
:1049F0007B681B685B68FB607B681B689B68BB60AF
:104A0000FB6823F07003FB603B681B68FA68134384
:104A1000FB607B681B68FA685A607B681B68164AF3
:104A200093420ED07B681B68B3F1804F09D07B683E
:104A30001B68124A934204D07B681B68104A934259
:104A40000CD1BB6823F08003BB603B685B68BA682D
:104A50001343BB607B681B68BA689A607B6801225D
:104A600083F83D207B68002283F83C200023184611
:104A70001437BD4680BC7047002C01400004004044
:104A80000008004080B582B000AF78607B68002BE2
:104A900001D1012342E07B6893F84130DBB2002B67
:104AA00006D17B68002283F840207868FDF750FA31
:104AB0007B68242283F841207B681B68DA687B6866
:104AC0001B6822F40052DA60786800F0C7FD7B684A
:104AD0001B681A697B681B6822F490421A617B6824
:104AE0001B685A697B681B6822F02A025A617B683E
:104AF0001B68DA687B681B6842F40052DA607B68E6
:104B000000225A647B68202283F841207B6820229F
:104B100083F842207B6800225A6300231846083736
:104B2000BD4680BD80B58AB002AFF860B9603B6019
:104B30001346FB8000237B61FB6893F84130DBB2B6
:104B4000202B6DD1BB68002B02D0FB88002B01D13C
:104B5000012366E0FB6800225A64FB68212283F887
:104B60004120FDF723FC7861FB68FA889A84FB6892
:104B7000FA88DA84FB689B68B3F5805F08D1FB682C
:104B80001B69002B04D10023FB61BB68BB6103E000
:104B9000BB68FB610023BB612AE03B6800937B6933
:104BA00000228021F86800F016FB0346002B01D09C
:104BB000032336E0FB69002B0BD1BB691B881A4627
:104BC000FB681B68C2F308025A60BB690233BB6111
:104BD00007E0FB691A78FB681B685A60FB690133C0
:104BE000FB61FB68DB8C9BB2013B9AB2FB68DA8409
:104BF000FB68DB8C9BB2002BCFD13B6800937B69B9
:104C000000224021F86800F0E6FA0346002B01D0AC
:104C1000032306E0FB68202283F84120002300E004
:104C2000022318462037BD4680BD80B584B000AF52
:104C3000F860B9601346FB80FB6893F84230DBB242
:104C4000202B12D1BB68002B02D0FB88002B01D196
:104C500001230BE0FB6800221A63FB881A46B9683F
:104C6000F86800F026FB034600E0022318461037E0
:104C7000BD4680BD80B5BAB000AF78607B681B6868
:104C80001B68C7F8E4307B681B68DB68C7F8E03056
:104C90007B681B685B69C7F8DC300023C7F8D83035
:104CA0000023C7F8D430D7F8E43003F00F03C7F877
:104CB000D830D7F8D830002B0FD1D7F8E43003F034
:104CC0002003002B09D0D7F8E03003F02003002B9D
:104CD00003D0786800F003FC5BE2D7F8D830002BF3
:104CE00000F0DE80D7F8DC3003F00103002B06D1A2
:104CF000D7F8E03003F49073002B00F0D180D7F8A0
:104D0000E43003F00103002B0BD0D7F8E03003F4BC
:104D10008073002B05D07B685B6C43F001027B68DD
:104D20005A64D7F8E43003F00403002B0BD0D7F813
:104D3000DC3003F00103002B05D07B685B6C43F093
:104D400002027B685A64D7F8E43003F00203002BB8
:104D50000BD0D7F8DC3003F00103002B05D07B68C3
:104D60005B6C43F004027B685A64D7F8E43003F0CC
:104D70000803002B11D0D7F8E03003F02003002BFC
:104D800005D1D7F8DC3003F00103002B05D07B6898
:104D90005B6C43F008027B685A647B685B6C002B99
:104DA00000F0F281D7F8E43003F02003002B08D0A4
:104DB000D7F8E03003F02003002B02D0786800F031
:104DC0008EFB7B681B685B6903F04003002B14BFFC
:104DD00001230023DBB2C7F8D4307B685B6C03F09F
:104DE0000803002B03D1D7F8D430002B4FD07868BC
:104DF00000F098FA7B681B685B6903F04003002BA6
:104E000041D07B681B681433C7F89C30D7F89C30BE
:104E100053E8003FC7F89830D7F8983023F04003A4
:104E2000C7F8D0307B681B681433D7F8D020C7F898
:104E3000A820C7F8A430D7F8A410D7F8A82041E8D4
:104E40000023C7F8A030D7F8A030002BD9D17B6859
:104E5000DB6B002B13D07B68DB6B7E4A5A637B686D
:104E6000DB6B1846FDF718FC0346002B16D07B6859
:104E7000DB6B5B6B7A68D26B104698470EE0786804
:104E8000FCF7A2FC0AE07868FCF79EFC06E0786874
:104E9000FCF79AFC7B6800225A6475E100BF73E15D
:104EA0007B681B6B012B40F04F81D7F8E43003F097
:104EB0001003002B00F04881D7F8E03003F0100316
:104EC000002B00F041810023BB607B681B681B68DE
:104ED000BB607B681B685B68BB60BB687B681B68EA
:104EE0005B6903F04003002B00F0B6807B68DB6B4E
:104EF0001B685B68A7F8BE30B7F8BE30002B00F027
:104F000045817B689B8DB7F8BE209A4280F03E8138
:104F10007B68B7F8BE20DA857B68DB6B9B69202B4A
:104F200000F088807B681B680C33C7F88830D7F89E
:104F3000883053E8003FC7F88430D7F8843023F432
:104F40008073C7F8B8307B681B680C33D7F8B8207B
:104F5000C7F89420C7F89030D7F89010D7F894206D
:104F600041E80023C7F88C30D7F88C30002BD9D11A
:104F70007B681B6814337B677B6F53E8003F3B679C
:104F80003B6F23F00103C7F8B4307B681B68143310
:104F9000D7F8B420C7F88020FB67F96FD7F88020D6
:104FA00041E80023BB67BB6F002BE1D17B681B6826
:104FB00014333B663B6E53E8003FFB65FB6D23F00B
:104FC0004003C7F8B0307B681B681433D7F8B020B3
:104FD000FA66BB66B96EFA6E41E800237B667B6EAB
:104FE000002BE3D17B68202283F842207B680022DB
:104FF0001A637B681B680C33FB64FB6C53E8003F4F
:10500000BB64BB6C23F01003C7F8AC307B681B6833
:105010000C33D7F8AC20BA657B65796DBA6D41E881
:1050200000233B653B6D002BE3D17B68DB6B1846AF
:10503000FDF7F7FA7B6802225A637B689A8D7B68DA
:10504000DB8D9BB2D31A9BB21946786800F0ADF89D
:105050009CE000BFE95300087B689A8D7B68DB8D7C
:105060009BB2D31AA7F8CE307B68DB8D9BB2002BA6
:1050700000F08E80B7F8CE30002B00F089807B687E
:105080001B680C33BB63BB6B53E8003F7B637B6BDC
:1050900023F49073C7F8C8307B681B680C33D7F8CB
:1050A000C8207A643B64396C7A6C41E80023FB6366
:1050B000FB6B002BE3D17B681B6814337B627B6A3C
:1050C00053E8003F3B623B6A23F00103C7F8C4305A
:1050D0007B681B681433D7F8C4203A63FB62F96A13
:1050E0003A6B41E80023BB62BB6A002BE3D17B68CB
:1050F000202283F842207B6800221A637B681B68A9
:105100000C333B613B6953E8003FFB60FB6823F0D5
:105110001003C7F8C0307B681B680C33D7F8C02079
:10512000FA61BB61B969FA6941E800237B617B6977
:10513000002BE3D17B6802225A63B7F8CE301946C0
:10514000786800F032F823E0D7F8E43003F0800309
:10515000002B09D0D7F8E03003F08003002B03D0F8
:10516000786800F055F914E0D7F8E43003F0400314
:10517000002B0ED0D7F8E03003F04003002B08D00E
:10518000786800F094F904E000BF02E000BF00E09E
:1051900000BFE837BD4680BD80B483B000AF786003
:1051A00000BF0C37BD4680BC704780B483B000AFF1
:1051B00078600B467B8000BF0C37BD4680BC7047D3
:1051C00080B483B000AF78607B685B6C18460C37A6
:1051D000BD4680BC704780B590B000AFF860B96044
:1051E0003B601346FB7150E0BB6CB3F1FF3F4CD00A
:1051F000BB6C002B07D0FDF7D9F802463B68D31AE9
:10520000BA6C9A4241D2FB681B680C33BB62BB6A22
:1052100053E8003F7B627B6A23F4D073FB63FB6837
:105220001B680C33FA6B7A633B63396B7A6B41E82A
:105230000023FB62FB6A002BE5D1FB681B6814337B
:105240007B617B6953E8003F3B613B6923F00103CD
:10525000BB63FB681B681433BA6B3A62FB61F96984
:105260003A6A41E80023BB61BB69002BE5D1FB68CA
:10527000202283F84120FB68202283F84220FB682B
:10528000002283F8402003230FE0FB681B681A68A4
:10529000BB681340BA689A420CBF01230023DBB2FB
:1052A0001A46FB799A429FD0002318464037BD46E4
:1052B00080BD80B485B000AFF860B9601346FB8054
:1052C000FB68BA689A62FB68FA889A85FB68FA8874
:1052D000DA85FB6800225A64FB68222283F84220A8
:1052E000FB681B69002B07D0FB681B68DA68FB684A
:1052F0001B6842F48072DA60FB681B685A69FB68BD
:105300001B6842F001025A61FB681B68DA68FB689F
:105310001B6842F02002DA60002318461437BD46AD
:1053200080BC704780B495B000AF78607B681B6824
:105330000C337B637B6B53E8003F3B633B6B23F495
:105340009073FB647B681B680C33FA6C3A64FB63F4
:10535000F96B3A6C41E80023BB63BB6B002BE5D1D2
:105360007B681B6814333B623B6A53E8003FFB6178
:10537000FB6923F00103BB647B681B681433BA6CC0
:10538000FA62BB62B96AFA6A41E800237B627B6A0F
:10539000002BE5D17B681B6B012B19D17B681B6847
:1053A0000C33FB60FB6853E8003FBB60BB6823F035
:1053B00010037B647B681B680C337A6CBA617B6179
:1053C0007969BA6941E800233B613B69002BE5D16B
:1053D0007B68202283F842207B6800221A6300BF8A
:1053E0005437BD4680BC704780B584B000AF78604C
:1053F0007B685B6AFB60FB680022DA85FB68002241
:10540000DA84F868FCF7E0F900BF1037BD4680BDCC
:1054100080B485B000AF78607B6893F84130DBB230
:10542000212B3ED17B689B68B3F5805F14D17B68EC
:105430001B69002B10D17B681B6AFB60FB681B8813
:105440001A467B681B68C2F308025A607B681B6AB5
:105450009A1C7B681A6208E07B681B6A591C7A6890
:1054600011621A787B681B685A607B68DB8C9BB280
:10547000013B9BB27A681946D184002B0FD17B681F
:105480001B68DA687B681B6822F08002DA607B6840
:105490001B68DA687B681B6842F04002DA60002310
:1054A00000E0022318461437BD4680BC704780B523
:1054B00082B000AF78607B681B68DA687B681B6825
:1054C00022F04002DA607B68202283F8412078686D
:1054D000FFF762FE002318460837BD4680BD80B541
:1054E0008CB000AF78607B6893F84230DBB2222B3F
:1054F00040F0AE807B689B68B3F5805F17D17B6816
:105500001B69002B13D10023FB627B689B6ABB6283
:105510007B681B685B689BB2C3F308039AB2BB6AE3
:105520001A807B689B6A9A1C7B689A6226E07B687B
:105530009B6AFB620023BB627B689B68B3F5805F5C
:1055400007D07B689B68002B0AD17B681B69002B06
:1055500006D17B681B685B68DAB2FB6A1A7008E0E8
:105560007B681B685B68DBB203F07F03DAB2FB6A1F
:105570001A707B689B6A5A1C7B689A627B68DB8D19
:105580009BB2013B9BB27A681946D185002B5DD155
:105590007B681B68DA687B681B6822F02002DA608F
:1055A0007B681B68DA687B681B6822F48072DA60AB
:1055B0007B681B685A697B681B6822F001025A618C
:1055C0007B68202283F842207B6800225A637B6834
:1055D0001B6B012B35D17B6800221A637B681B682B
:1055E0000C337B617B6953E8003F3B613B6923F0EF
:1055F00010037B627B681B680C337A6A3A62FB613A
:10560000F9693A6A41E80023BB61BB69002BE5D127
:105610007B681B681B6803F01003102B0AD1002362
:10562000FB607B681B681B68FB607B681B685B68B2
:10563000FB60FB687B689B8D19467868FFF7B5FDBA
:1056400002E07868FCF718F8002302E0002300E08D
:10565000022318463037BD4680BD000080B584B0B7
:1056600000AF78607B681B681B6923F440517B683E
:10567000DA687B681B680A431A617B689A687B68F2
:105680001B691A437B685B691343BB607B681B68BB
:10569000DB6823F4B05323F00C037A681268B9680E
:1056A0000B43D3607B681B685B6923F440717B68A4
:1056B0009A697B681B680A435A617B681B682C4A9D
:1056C000934203D1FEF7D6FBF86002E0FEF7BEFB83
:1056D000F860FA6813469B0013449A001A447B68EA
:1056E0005B689B00B2FBF3F3224AA2FB03235B0936
:1056F0001901FA6813469B0013449A001A447B6808
:105700005B689B00B2FBF3F21A4BA3FB02035B093D
:10571000642000FB03F3D31A1B013233154AA2FBAA
:1057200003235B0903F0F0031944FA6813469B0056
:1057300013449A001A447B685B689B00B2FBF3F247
:105740000C4BA3FB02035B09642000FB03F3D31A99
:105750001B013233074AA2FB03235B0903F00F024C
:105760007B681B680A449A6000BF1037BD4680BD45
:10577000003801401F85EB51002B2DE9F0471D46F5
:10578000BBBF03F100431D4600232D2388B0144600
:10579000B8BF1446129A109E1370149BDDF84CA0EB
:1057A00023F02008B8F1460F05D0B8F1450F00D11D
:1057B0000136022300E0032307AA049206AACDE9DA
:1057C00002A2CDE9003622462B4600F06DFEB8F16C
:1057D000470F074619D1119BDB070ED500EB0609D1
:1057E0000022002320462946FBF7DEF808B1CDF859
:1057F0001C903022079B4B451ED33846079B159AB9
:10580000DB1B136008B0BDE8F087B8F1460F00EB72
:105810000609E5D10378302B0AD100220023204667
:105820002946FBF7C1F818B9C6F10106CAF80060AD
:10583000DAF800309944D3E7591C07911A70D9E778
:10584000F7B50029B6BF2D232B2349420929027041
:10585000437029DD0DF107031D460A27B1FBF7F65A
:105860001A4607FB1614303402F8014C0C46632C20
:10587000314603F1FF33F1DC3031941E03F8011C93
:105880002346411CAB420AD30DF109039B1AAC42DB
:1058900088BF002302330344181A03B0F0BD13F885
:1058A000016B01F8016FEDE7302330318370C17077
:1058B000031DF1E72DE9F04F91B00C46DDF868804B
:1058C00016461F46054600F0E1FC0368184608939B
:1058D000FAF73EFC00230E93D8F800300990073306
:1058E00023F0070303F1080294F818A0D4F800B0DD
:1058F000C8F80020D3E9008929F000430B93CDF8C4
:1059000028804FF0FF32DDE90A01C4E912899C4B7F
:10591000FBF77CF870BBDDE90A014FF0FF32984BD2
:10592000FBF756F830BB0022002340464946FBF700
:1059300045F810B12D2384F84330924A924BBAF1C6
:10594000470F8CBF9046984603234FF00009236110
:105950002BF00403236033462146284600970FAA04
:1059600000F0D4F9013040F090804FF0FF3011B0DA
:10597000BDE8F08F42464B4640464946FBF746F8A5
:1059800048B14B46002BB8BF2D23804AB8BF84F8DE
:1059900043307F4BD3E763680AF0DF015A1C3FD1E5
:1059A0000623636000224BF48063236006920EAAF4
:1059B000CDE904A20DAA03920DF13302CDE9013223
:1059C00063684246009328464B460A91FFF7D4FE8F
:1059D0000A99804647290D9928D1C81C02DB6368C3
:1059E000994240DDAAF1020A5FFA8AFA5246013969
:1059F00004F150000D91FFF723FF0E9A8146131812
:105A0000012A236102DC2268D20701D50133236118
:105A10009DF83330002B9ED02D2384F843309AE735
:105A20004729BFD1002BBDD10123BAE7BAF1650FD9
:105A3000DCD9BAF1660F18D1002963680BDD21614A
:105A400013B92268D00702D501330B4423614FF00C
:105A50000009A165DCE713B92268D20701D502333A
:105A6000F4E70123F2E74FF0670A0E9B994205DB4A
:105A700023682161D807EAD54B1CE7E70029CCBF92
:105A80000122C1F102021344E0E723685A0507D45A
:105A90002369424631462846B84701302BD164E796
:105AA000BAF1650F40F2DC80D4E912010022002334
:105AB000FAF77AFF002833D0012331462846354AC9
:105AC000B84701303FF451AFDDE90D38434502DB03
:105AD0002368D8070FD5DDE9082331462846B847A3
